:100000000C94C1210C94DE210C94DE210C94DE2191
:100010000C94DE210C94DE210C94DE210C94E4552A
:100020000C94DE210C94DE210C94DE210C94DE2154
:100030000C94DE210C94DE210C94DE210C94DE2144
:100040000C94DE210C94DE210C94F35A0C941B5B6F
:100050000C94DE210C94DE210C94DE210C94DE2124
:100060000C94DE210C94DE2156532D4B3D511B5236
:1000700042512D4BFB542D4B7C4E04554D53A14FFB
:100080002C55235323512D4B135577519B4E7C53A5
:1000900041531B537752265425752F25752F2575EF
:1000A00020253032753A253032753A253032750ABE
:1000B000005468652064726976652025752077692B
:1000C0006C6C20626520666F726D61747465642E5D
:1000D0002041726520796F7520737572653F202805
:1000E000592F6E293D000A256C752062797465735D
:1000F00020636F706965642E0A000A436F70796926
:100100006E672E2E2E000A4372656174696E672039
:1001100022257322004F70656E696E672022257359
:100120002200256C7520627974657320777269747A
:1001300074656E207769746820256C752062797407
:1001400065732F7365632E0A00256C7520627974C0
:1001500065732072656164207769746820256C7509
:100160002062797465732F7365632E0A006670745C
:1001700072203D20256C75283078256C58290A009E
:100180002C202531306C754B2062797465732066A4
:100190007265650A002534752046696C65287329E7
:1001A0002C2531306C7520627974657320746F74FE
:1001B000616C0A25347520446972287329002573FF
:1001C0000A00256325632563256325632025752F94
:1001D000253032752F2530327520253032753A257D
:1001E0003032752025396C7520202573000D25755A
:1001F0002066696C65732C20256C752062797465A6
:10020000732E0A257520666F6C646572732E0A253D
:100210006C75204B4220746F74616C206469736B41
:100220002073706163652E0A256C75204B42206136
:100230007661696C61626C652E0A004641542074D7
:10024000797065203D2046415425750A42797465D0
:10025000732F436C7573746572203D20256C750A8D
:100260004E756D626572206F662046415473203D65
:100270002025750A526F6F742044495220656E74B0
:1002800072696573203D2025750A536563746F722A
:10029000732F464154203D20256C750A4E756D62C2
:1002A0006572206F6620636C757374657273203D90
:1002B00020256C750A46415420737461727420289D
:1002C0006C626129203D20256C750A4449522073D7
:1002D0007461727420286C62612C636C7573746F26
:1002E0007229203D20256C750A4461746120737465
:1002F00061727420286C626129203D20256C750A8A
:100300000A2E2E2E0072633D25750A0072633D256C
:10031000750A003F3F3F0A0025303458202530320F
:10032000582D00532F4E3A2025730A004D6F6465F7
:100330006C3A2025730A005344205374617475731A
:100340003A0A004F43523A0A004349443A0A0043EA
:1003500053443A0A004361726420747970653A200C
:1003600025750A00457261736520626C6F636B3A94
:1003700020256C7520736563746F72730A00536572
:1003800063746F722073697A653A2025750A004498
:10039000726976652073697A653A20256C752073D9
:1003A0006563746F72730A0072633D25640A0053BB
:1003B0006563746F723A256C750A0072633D25643B
:1003C0000A002C20436F646520706167653A202520
:1003D000750A004C464E20456E61626C6564000AE9
:1003E0004661744673206D6F64756C652074657327
:1003F00074206D6F6E69746F7220666F7220415643
:10040000520A002025303258002530386C58200020
:1004100072633D25752046525F25530A004F4B00FD
:100420004449534B5F45525200494E545F45525226
:10043000004E4F545F5245414459004E4F5F46496C
:100440004C45004E4F5F5041544800494E56414C78
:1004500049445F4E414D450044454E4945440045A1
:100460005849535400494E56414C49445F4F424A03
:100470004543540057524954455F50524F544543E9
:1004800054454400494E56414C49445F44524956F4
:1004900045004E4F545F454E41424C4544004E4F3F
:1004A0005F46494C455F53595354454D004D4B46AB
:1004B000535F41424F525445440054494D454F55B6
:1004C00054004C4F434B4544004E4F545F454E4FF4
:1004D0005547485F434F524500544F4F5F4D414E83
:1004E000595F4F50454E5F46494C4553000041000F
:1004F00042004300440045004600470048004900D0
:100500004A004B004C004D004E004F00500051007F
:10051000520053005400550056005700580059002F
:100520005A00910392039303940395039603970350
:10053000980399039A039B039C039D039E039F03C7
:10054000A003A103A303A403A503A603A703A80371
:10055000A90310041104120413041404150416044E
:100560001704180419041A041B041C041D041E0497
:100570001F04200421042204230424042504260447
:100580002704280429042A042B042C042D042E04F7
:100590002F0401046021612162216321642165210E
:1005A000662167216821692121FF22FF23FF24FFA3
:1005B00025FF26FF27FF28FF29FF2AFF2BFF2CFFFF
:1005C0002DFF2EFF2FFF30FF31FF32FF33FF34FFAF
:1005D00035FF36FF37FF38FF39FF3AFF0000610073
:1005E00062006300640065006600670068006900DF
:1005F0006A006B006C006D006E006F00700071008F
:10060000720073007400750076007700780079003E
:100610007A00B103B203B303B403B503B603B7035F
:10062000B803B903BA03BB03BC03BD03BE03BF03D6
:10063000C003C103C303C403C503C603C703C80380
:10064000C90330043104320433043404350436045D
:100650003704380439043A043B043C043D043E04A6
:100660003F04400441044204430444044504460456
:100670004704480449044A044B044C044D044E0406
:100680004F0451047021712172217321742175214D
:10069000762177217821792141FF42FF43FF44FFF2
:1006A00045FF46FF47FF48FF49FF4AFF4BFF4CFF0E
:1006B0004DFF4EFF4FFF50FF51FF52FF53FF54FFBE
:1006C00055FF56FF57FF58FF59FF5AFF0000A7007C
:1006D0009881A8004E81B0008B81B1007D81B4006B
:1006E0004C81B600F781D7007E81F70080819103AD
:1006F0009F839203A0839303A1839403A283950312
:10070000A3839603A4839703A5839803A6839903E1
:10071000A7839A03A8839B03A9839C03AA839D03B1
:10072000AB839E03AC839F03AD83A003AE83A10381
:10073000AF83A303B083A403B183A503B283A6034D
:10074000B383A703B483A803B583A903B683B10316
:10075000BF83B203C083B303C183B403C283B503B1
:10076000C383B603C483B703C583B803C683B90381
:10077000C783BA03C883BB03C983BC03CA83BD0351
:10078000CB83BE03CC83BF03CD83C003CE83C10321
:10079000CF83C303D083C403D183C503D283C603ED
:1007A000D383C703D483C803D583C903D683010485
:1007B00046841004408411044184120442841304CA
:1007C00043841404448415044584160447841704A0
:1007D00048841804498419044A841A044B841B046D
:1007E0004C841C044D841D044E841E044F841F043D
:1007F000508420045184210452842204538423040D
:1008000054842404558425045684260457842704DC
:1008100058842804598429045A842A045B842B04AC
:100820005C842C045D842D045E842E045F842F047C
:10083000608430047084310471843204728433041F
:1008400073843404748435047584360477843704DF
:1008500078843804798439047A843A047B843B04AC
:100860007C843C047D843D047E843E0480843F047B
:100870008184400482844104838442048484430448
:100880008584440486844504878446048884470418
:10089000898448048A8449048B844A048C844B04E8
:1008A0008D844C048E844D048F844E0490844F04B8
:1008B00091845104768410205D8115205C8118207C
:1008C0006581192066811C2067811D206881202098
:1008D000F5812120F6812520648126206381302046
:1008E000F18132208C8133208D813B20A681032130
:1008F0008E8116218287212184872B21F08160211E
:100900005487612155876221568763215787642167
:1009100058876521598766215A8767215B87682137
:100920005C8769215D879021A9819121AA8192210B
:10093000A8819321AB81D221CB81D421CC8100220B
:10094000CD810222DD810322CE810722DE810822B1
:10095000B8810B22B981112294871A22E3811D22CA
:10096000E5811E2287811F2298872022DA81252295
:1009700061812722C8812822C9812922BF812A2298
:10098000BE812B22E7812C22E8812E2293873422FC
:1009900088813522E6813D22E4815222E081602275
:1009A00082816122DF8166228581672286816A22B7
:1009B000E1816B22E2818222BC818322BD81862279
:1009C000BA818722BB81A522DB81BF2299871223AE
:1009D000DC8160244087612441876224428763244C
:1009E00043876424448765244587662446876724B3
:1009F000478768244887692449876A244A876B2483
:100A00004B876C244C876D244D876E244E876F2452
:100A10004F87702450877124518772245287732422
:100A2000538700259F840125AA840225A0840325DD
:100A3000AB840C25A1840F25AC841025A28413253A
:100A4000AD841425A4841725AF841825A3841B2501
:100A5000AE841C25A5841D25BA842025B5842325B4
:100A6000B0842425A7842525BC842825B7842B257C
:100A7000B2842C25A6842F25B6843025BB8433254B
:100A8000B1843425A8843725B8843825BD843B2516
:100A9000B3843C25A9843F25B9844225BE844B25D7
:100AA000B484A025A181A125A081B225A381B3256D
:100AB000A281BC25A581BD25A481C6259F81C7250E
:100AC0009E81CB259B81CE259D81CF259C81EF25C5
:100AD000FC8105269A810626998140268A81422634
:100AE00089816A26F4816D26F3816F26F2810030B8
:100AF000408101304181023042810330568105300E
:100B000058810630598107305A8108307181093087
:100B100072810A3073810B3074810C3075810D3015
:100B200076810E3077810F307881103079811130E5
:100B30007A811230A7811330AC8114306B8115306B
:100B40006C811D3080871F30818741309F82423009
:100B5000A0824330A1824430A2824530A382463035
:100B6000A4824730A5824830A6824930A7824A3005
:100B7000A8824B30A9824C30AA824D30AB824E30D5
:100B8000AC824F30AD825030AE825130AF825230A5
:100B9000B0825330B1825430B2825530B382563075
:100BA000B4825730B5825830B6825930B7825A3045
:100BB000B8825B30B9825C30BA825D30BB825E3015
:100BC000BC825F30BD826030BE826130BF826230E5
:100BD000C0826330C1826430C2826530C3826630B5
:100BE000C4826730C5826830C6826930C7826A3085
:100BF000C8826B30C9826C30CA826D30CB826E3055
:100C0000CC826F30CD827030CE827130CF82723024
:100C1000D0827330D1827430D2827530D3827630F4
:100C2000D4827730D5827830D6827930D7827A30C4
:100C3000D8827B30D9827C30DA827D30DB827E3094
:100C4000DC827F30DD828030DE828130DF82823064
:100C5000E0828330E1828430E2828530E382863034
:100C6000E4828730E5828830E6828930E7828A3004
:100C7000E8828B30E9828C30EA828D30EB828E30D4
:100C8000EC828F30ED829030EE829130EF829230A4
:100C9000F0829330F1829B304A819C304B819D30B1
:100CA00054819E305581A1304083A2304183A330CE
:100CB0004283A4304383A5304483A6304583A730C4
:100CC0004683A8304783A9304883AA304983AB3094
:100CD0004A83AC304B83AD304C83AE304D83AF3064
:100CE0004E83B0304F83B1305083B2305183B33034
:100CF0005283B4305383B5305483B6305583B73004
:100D00005683B8305783B9305883BA305983BB30D3
:100D10005A83BC305B83BD305C83BE305D83BF30A3
:100D20005E83C0305F83C1306083C2306183C33073
:100D30006283C4306383C5306483C6306583C73043
:100D40006683C8306783C9306883CA306983CB3013
:100D50006A83CC306B83CD306C83CE306D83CF30E3
:100D60006E83D0306F83D1307083D2307183D330B3
:100D70007283D4307383D5307483D6307583D73083
:100D80007683D8307783D9307883DA307983DB3053
:100D90007A83DC307B83DD307C83DE307D83DF3023
:100DA0007E83E0308083E1308183E2308283E330F0
:100DB0008383E4308483E5308583E6308683E730BF
:100DC0008783E8308883E9308983EA308A83EB308F
:100DD0008B83EC308C83ED308D83EE308E83EF305F
:100DE0008F83F0309083F1309183F2309283F3302F
:100DF0009383F4309483F5309583F6309683FB30FB
:100E00004581FC305B81FD305281FE3053813132AF
:100E10008A8732328B8739328C87A4328587A53214
:100E20008687A6328787A7328887A83289870333C7
:100E300065870D33698714336087183363872233DE
:100E4000618723336B8726336A87273364872B3385
:100E50006C87363366873B336E8749335F874A3307
:100E60006D874D33628751336787573368877B338C
:100E70007E877C338F877D338E877E338D878E335D
:100E800072878F3373879C336F879D3370879E3350
:100E90007187A1337587C4337487CD338387004E40
:100EA000EA88014E9A92034EB58E074E9C96084EE4
:100EB000E48F094E4F8E0A4EE38F0B4EBA890D4ECA
:100EC00073950E4E5E97114E4E89144E8E8A154EB6
:100ED000A198164EA290184E758B194EB8951E4EBD
:100EE000E58F214EBC97264EC0952A4EA2982D4ED6
:100EF0008692324EF88B384EDB8A394E4F923B4EFB
:100F0000E58E3C4EA598434E5494454E768B4B4E01
:100F100056944D4EE1934E4EC18C4F4E5296564EC6
:100F2000A898574EE68F594EB3895D4EE38B5E4EBF
:100F3000EE8C5F4EE796714E9097734EFB937E4E0C
:100F4000A38A804E548B864EB997884E5C97894E03
:100F500088918B4E968E8C4EF1938E4EB098914E1A
:100F60005D89924EDD8C944EDC8C954EE488984ED3
:100F70006A98994E69989B4EB18D9C4E9F889E4E63
:100F8000B198A14E5396A44EF08CA54EE588A64E7E
:100F90009296A84E9C8BAB4E9D8BAC4E9E8BAD4ECD
:100FA000E092AE4EBA97BA4E6C90C04E598FC14E79
:100FB0006D90C74E778BCA4EA18DCB4EEE89CF4E2A
:100FC000A795D44E658ED54E648ED64EBC91D84E24
:100FD0007495D94EE590DD4E5781E34EE391E44E92
:100FE000DF97E54EC888EE4EBC89F04EC28BF24EBC
:100FF0008792F64E8F8CFB4E4394014FE98A0A4F3D
:10100000C9880D4FDE8C0E4FEA8A0F4F9A95104F0C
:10101000B094114F788B1A4FEF891D4F60932F4F6B
:101020008C94344FBA94364FE097384F4C903A4FE7
:10103000668E3C4F978E3D4FBE89434FCF92464FB1
:101040004192474FC8984D4FCA884E4FE1924F4F3B
:101050005A8F504FB28D514F4397534FCC91554FAC
:10106000BD89574FC798594F5D975B4FC5985C4FE7
:10107000EC8D734FC089754FB9957C4FF18C7F4FC4
:10108000678E834FA48A864FD2988B4FE1978D4FFE
:10109000988E9B4F9F8B9D4FCB88A04FA08BA14FCD
:1010A000BF89AD4F9996AE4F8E95AF4FF28CB54F2D
:1010B0004E90B64FB597BF4FD695C24F578CC34F82
:1010C000A391C44FE289CA4F728FD74FAD91DD4FC4
:1010D000DB95E14F4D90E34F9396EE4F438FF34FE7
:1010E0006F94F54F5595F84FEE95FA4FB489095026
:1010F00071910B50C28C0D507B9412507C93165002
:10110000F48C1950F38C1F50D88E2350ED95245039
:101110006C922650918C2B50CF972D506098365062
:10112000E48B3950908C4950CC884F50CE95555017
:10113000F1985C50E2926550928C7250C38E74505C
:10114000A4917550E3927650F48B7D50558B8D5061
:1011500054969150868C9850508E9950F594AC507E
:10116000C38DAD506297B550C28DB7509D8FBE50A4
:10117000588CC550CD8BCD50AD93CF509C91D15054
:10118000A18BD5506C96DA50BB97E7506D91FB5010
:10119000C6950051568B0451AD891251F28E1A51E9
:1011A00052991F519E8F2A5144973251D7964151DF
:1011B000F2884351B38C44515A8C45515B8F465150
:1011C0009B924751A28B4851E6904951F58C4B5167
:1011D0008E8D4C515B994D51C6964E516593505131
:1011E000998E52515A9954515C995A517D935C5140
:1011F000958A6551FC93685153916B51AA946C5137
:10120000F68C6D515A987151A48B7551BA957651DF
:10121000B4917751EF8B785154937C51938C8551D5
:10122000E09386517E898A51FB8D8D51C48D9151F9
:101230006899925160969751E78F9951CA8EA05143
:10124000A58AA4516C99A551BB96A8517995AC512A
:101250007E93B451E18DB651E896B751E297C451EF
:10126000A690C651798FCB519C92CC51BD97CD5150
:101270008093DC51A3EADD51C38BE0517B99E151AE
:101280007D96E651888FE751FA91EA51E293F15148
:101290004D8AF651A58BF851CA93F9519A89FA51A2
:1012A0006F8FFD519F940052819303526E900652AE
:1012B000AA950752D8900852A08A0A52A78A1152BA
:1012C000598C1752F1971D52898F2452BB94255285
:1012D000CA952952989730529E933652A79037520A
:1012E000FC8D3852948C39528B993A52688E3B520D
:1012F0008F8D4352E4924752A5914A52ED8D4D5243
:101300004F91565255965B52848D6352958C645220
:10131000DC8D65528D946A5292996F529B957052F2
:10132000E88F7252848A7452939975526E918352E7
:10133000638A8752808C88529C998952AB979B52C2
:10134000CD979F52F78CA052C189A352F297A95210
:10135000958FAA527793AB52858DB152E397B452D1
:101360004A98B952F88CBE524E8AC3527596C552ED
:10137000BA92C7524597C952D795D552AE93D85213
:10138000A88AD952B196DD529F8FDF52E595E2527D
:10139000A890E452CE8BE752A98AF2524D8CFA52B1
:1013A000D98EFE52F98CFF52DC960153E696025319
:1013B000F5930553EF951653BB8917536B96195345
:1013C000FA8D1D5378912053A08F2153A78B2A5358
:1013D000D994395343953A53E68B3B53E3883F53B3
:1013E000BD934053BD9941535C8F4353E79047539E
:1013F000A18F4853DF8C4A53BC944D53C29951532B
:10140000DA945253B2915353EC915453A68B5753E1
:10141000EC93585350925A538E945C536D9660538C
:10142000E8906653548C6F534B897053F388715313
:10143000EB8A7353A6917453708B755391977853BD
:10144000B5897F53A88B8253CA998453EF969853DA
:10145000D0979A53FA8C9F53B48CA053CC99A8532D
:101460007E90A9535889AD537D89B353B58CBB5336
:101470008E8BC253518EC8539496C953B38DCA53A1
:10148000798BCB534697CC536F91CD53BD94CE53AC
:10149000FB8ED453668FD653E68ED753F38ED95333
:1014A000968FDB53BE94E1536289E2537091E3530C
:1014B000FB8CE453C38CE553E58BE9534092EA532C
:1014C000FC91EB53A98BEC53A28FEF53C289F053DD
:1014D000E491F153B68EF2536A8EF3534589F65375
:1014E000908AF753868DF853698E0354688B0454A1
:1014F000658A0854878D0954678B0A54DD920B5412
:1015000044890C54AF930D54BC960E54408D0F5427
:101510009997105466931154FC8C1B544E8C1F5495
:10152000E18B205469962654DB942B54DC8A385482
:101530007A8B395481903B54AB953E54E18C4254A4
:1015400043984654F0954854E6924954E08C4A54E6
:10155000908D5154DB936854FC8E6A54F48E73540E
:10156000A1967B54EF997C54C48C7D54BD968054D5
:10157000F0998B54EE8D8C5461988E54E999AC544B
:10158000F999B254E78DB354508ABD54F488C054CD
:10159000A388C1546995C954C68DE154F588E854AF
:1015A000A38FE9548996F2544E93045553890655F6
:1015B000B48D07554F90105582931655A0882F551E
:1015C00042973155A58F3E55C1914455ED914655F1
:1015D000A48F4F55E29653555B8C84555091895595
:1015E000418D8B559D929855629A9A55AB8A9C5520
:1015F000EC8A9D55858AA755968CAA557291AB5554
:10160000698BAC55AA8BAE55649AB055F28BB65522
:101610006389E3556B8E065651920956C389145659
:10162000719A1756A68F185652892956DC89315659
:10163000FA8F42565C894C5658915B569A8A685686
:10164000ED8A7456AC957856D3937A56B6948756ED
:10165000648AA2565894C056939AC156919AC3561A
:10166000929AD356979ADA56FA8EDB566C8EDE56DD
:10167000F189E056F688E3566392EE56999AF05651
:10168000A28DF256CD88F3567D90FA56C58CFD5644
:10169000918D0357DE950B57A09A0F57978C1257D1
:1016A00080891357A29A1F5779932757B3882857D1
:1016B000DD8D2D575C8C30576E924257E28D475727
:1016C000CF8B4A5756965057BF8D5157428D64570E
:1016D000A38D665752926A57D892825782908B5741
:1016E0005E8CA257438DA3575F8AC357BA9ACB57D4
:1016F0008496CE57E98FDC575794DF57E688E0573A
:101700007595F457FB8FF757B78EF9577C94FA57B6
:10171000EE8AFC57E98D005878960258B093055828
:10172000988C0658CD911558C2912158C69A2458C4
:10173000E7922A58AC8A305881893158F19534584B
:10174000EA8F355867933A58E48D4058BB95415815
:10175000DB974A58F28951585991545883935758F6
:101760006893585884935958B7945A58CB925E58F6
:10177000C78D695896896B58559375586F907958ED
:10178000CD9A7E586D8F8358AB8B9358E6959758BA
:101790009D919C58C4929F58D09AA8586E96B35861
:1017A000AD95BE58A48DC158C795C7586492CA5804
:1017B000F389CC58EB8FD558888DEB586D8EEC584B
:1017C0007090EE587391F058BA90F158EB88F25837
:1017D0008494F758D9920959CF950F59C48915594E
:1017E0005B9716594F8A1959678F1A59BD911C5921
:1017F000E9962259B2962759E591295956932A59C3
:10180000BE912B5976952E599B893159B88E3759EF
:10181000CE88445982894759EF8A4859DE934959FD
:10182000F2954F59749151595F8C54597A96575982
:10183000859365599C896859A78F6A5944926E5956
:10184000B1957359978F74597A937D59448D825904
:1018500040948359DC948459CF968A59449493597F
:10186000578B965964979959AD96A559C391A85924
:101870005796AC596993B9598596BB59C88DBE59CD
:10188000A88FC9596F8ECB596E8ED059B788D15950
:10189000C68CD359A990D459CF88E5595789E659B0
:1018A000AD8AEA59C396EB595095F659A688FB596B
:1018B000F788FF59708E015AD088035AA188185AA8
:1018C000BA96205A5090295AD8952F5AE28C3C5AF1
:1018D000A98F415A4B98465A6B945A5AA58D665A0D
:1018E00077957F5AB996925A7D949B5A5195C15AD1
:1018F000C589C95AB98ECC5A998CE15A8492095B30
:10190000F08A225BEC8F2C5BDA92305B6489505B4F
:10191000718E545B458D575B9A8E585BB6915C5BBC
:10192000798E5D5B468D5F5BD096635B478B645BB6
:10193000C78C665B778A6B5BB791785B7B9B855BBB
:10194000EE91875B4689885BE78E895BC0888B5BFD
:1019500076918C5BAE8A8D5BB38E8F5B478D955B8A
:101960008693975B408F985BAF8A995B88929A5B6E
:10197000E8929B5BB6889C5B588B9D5BF3959F5B65
:10198000C08EA25B718BA35BE990A45BBA8EA55B52
:101990004797AE5B7B8BB05BC98DB35B518AB45B01
:1019A0008389B55BAA8FB65BC689B95B6597BF5B58
:1019B000688FC25BE28EC45BF18AC55BD093C65B65
:1019C000A796CC5B7895D25BA68AD35BF58BDB5B65
:1019D000B08ADD5B5190DF5B408EE15BC789E75BDE
:1019E0004A94E95B5290EE5BBE97F55B9E92F85B82
:1019F000A190FA5B9B8EFE5BCE91FF5BF58E015C46
:101A00009595025CEA90045CCB8E065CAB8F095C1A
:101A1000D1880A5CB8910B5C71900E5CB1930F5C3D
:101A2000AC8F115CAD8F165CEB901A5CAE8F245CB2
:101A3000DE962D5CC48B315C418F3A5CDA8E3B5C68
:101A40004B903C5CF2933D5C73903E5CF6943F5C43
:101A50004194405CC78B415C9B9B455C8F8B485C91
:101A6000FC8B4A5CCD934B5CAE894D5C728E515CB5
:101A7000FB8B555C57935E5CAE91605C6A93615CD6
:101A8000C68E645C7791655C9A976F5CD493715C49
:101A9000528E795CA69B905CF28AA15CAA89A85CB4
:101AA0005A91A95CE28AAC5CA696B15CD091B35C19
:101AB000788AB85CDD8AE05CBB93E15CAC8BE85C67
:101AC000E389EF5CF595F05CF495F65C8793FB5C3D
:101AD000738F075D92900E5DE88D165D528A295DC9
:101AE000F695505D9297695D93906F5DB58D8B5DB6
:101AF0008893BA5DE497CC5DDE8ADD5DEC90DE5DB7
:101B0000428FE15D848FE35D8391E55D488DE65D05
:101B1000B68DE75D498DE85D908BEB5DDE9BEE5DFC
:101B2000B78DF15DC88CF35DA496F45D6294F75DAA
:101B30004A8DFB5DAA8AFD5D4692FE5DD08B025EFA
:101B4000738E035E7A95065EBF940C5EF38A165E12
:101B50009F921D5EE992255E83902B5E748E2D5EB2
:101B6000C8902F5ED191305E418B335EA092385E7B
:101B7000ED8F3D5E5896455E9D954C5E7996555E1F
:101B80008B96615EA694635EBC95725EB18A735E4D
:101B9000BD95745E4E94785E4B8D795EB28A7B5EA5
:101BA000B68C7C5E63977D5E48977E5EF48A815E2C
:101BB000A192835E4C8D845EAF8F875EDD948A5EDA
:101BC000B08F8F5E988F955EEA92965EF795975EDE
:101BD00058939A5E4D8D9C5E7B95A65E7893A75E2A
:101BE000C08DAB5EC98CAD5EEB92B55EC188B65E52
:101BF0008E8FB75E4E8DB85E6697C35E7094C95E79
:101C0000F597CA5E4C98D35E668ADF5E5F95E05EAC
:101C1000B18FE25E459CE35E419CF65E8489F75E8F
:101C2000EC92FA5E9A8CFB5EF489FC5E5594FF5E42
:101C3000F993015FD995045F4D980A5FBE950D5FDA
:101C4000AF980F5FAE8E105FF393135F7C8B145FC2
:101C5000A292155FF888175FA495185F4F8D1B5FE0
:101C60006F921F5FED92255FED96265FB78C275F21
:101C7000CA8C315FE38E355FA392375FAD8B3C5FDB
:101C80004A953E5F65924A5FAE8B535F9693575F6E
:101C9000619C595F629C615F639C625F608C665F60
:101CA0004695695FCA8D6A5F56956B5FA4926C5FBB
:101CB0006A95705FB28F715F6589775F669C795FA7
:101CC000F0967C5FDE94805F9D89815FAA90845F3F
:101CD000618C855FD2918A5F6A9C8B5FA5978C5FD0
:101CE000E38C905F998F925F6B93935F5D8F975FAB
:101CF000BE93985F709CA15FE48CA95F9C95AA5FDE
:101D00007A8FAE5FF794B35FBF93B45FA592B95F6C
:101D10004F93BD5F4A8BC35F5390C55F4B95CC5FBC
:101D2000F58ACD5F4594D75F758ED85F5996D95F98
:101D30005A96DC5F9E89E05F8992EB5FF589F55FDB
:101D40004F94FD5F9A8D12607B9316607C951C60AA
:101D5000E5971D60768E2060D39125607D8B27608E
:101D6000AB90286085892A60F6892F60AF8B4B6025
:101D7000F6974D60929C5060B08B5260508D5560CC
:101D80009A8F6260F889656070926860A68D69605C
:101D9000B6896B60989C6D60B18B6F60A791706025
:101DA000868A7560628C8960BB8E8C60EE929460CE
:101DB000F7899F60E58CA0604997A360B38AA6600D
:101DC0007889A9605994AA60AB88B260DF94B66044
:101DD000E396BC608993C560EE8FC760D593D160F0
:101DE0006698DA609B8DDC60C990DF60D288E36022
:101DF0007991E860538EF060C491F3607A91F96054
:101E0000E48E0161448F0861FA960961F9960F61C9
:101E1000D3881A61F08B1B61A4881F61B48A486162
:101E20009C8E4B61D4914C61518D4E6154905561A3
:101E3000E79562619D966361B58A6761648C6861AC
:101E4000538A6E61B6977061D4887661638C7E61C7
:101E50007C9782614A978E619E919061F79791611C
:101E6000DF9C9461DC9CA461AE95A761B293A961EB
:101E7000658CB2619B8CB661AF89BE61B68AC76161
:101E8000A78DD061F989F261A692F8619C8C0A62F3
:101E9000E8950E625E8F1062AC901162E489126266
:101EA000FA891662BD881A62CA901F62818C266206
:101EB000ED902E62439D2F62598B3062449D3462B7
:101EC000D5913862CB8C3B62DF963F625B96406275
:101ED0008A8F4762EE904962E0944B62E88E4D62D1
:101EE000CB8D5362C5915562A5955862EF916E6294
:101EF000AF957162B58876627D957962E1947F6273
:101F0000B38F80625A8B8462B48F8A6263949162C9
:101F10007D9795628A939762528D9862DC909C625D
:101F2000B2949E62F091AB62E294B162F895B562B0
:101F3000EF92B9629596BC629F89BD628A92C56232
:101F40005392C962669DCD628F94D062FB89D26242
:101F5000918BD362F191D862538DD962D990DB62B3
:101F6000B58FDD627194E062928BE162678AEC6208
:101F7000878AED624090F3629D8CF662418EF76233
:101F8000898DFE62458F01639D8E0763778E09639D
:101F9000C2881163A7921963938B1F63B28B286366
:101FA000A5882B63C18D2F6355903A63F0923D63F2
:101FB000D2943F637D914963A8914C634A8E5563E7
:101FC000DF955763BB925C637B916763F9956863A8
:101FD000CC8E6E63989072639E8C7763B78F7A63B2
:101FE000E6937B63509483637C918863F68E8C6365
:101FF000B68F926372949863408C9B637C8AA063D3
:10200000A997A163CC8DA2635492A563DA90A763CC
:10201000548DA8638490A9638689AA635B91AC639D
:10202000648BB263668CB463CD92BB637E91C363F1
:10203000B591C463899DC963869DCF636095D06364
:10204000F192D6634B97DA636797DB63B78AE163F4
:10205000AC88EE63F68AF4638789F663889DFA6339
:1020600068970D64B99116648A9D2C64C0942D64A0
:102070008B933A64678C3E64EF8D4264DB905864C6
:102080004593696480967864CC967A64A090836462
:10209000828C9264548E9A6451949E64B393A46427
:1020A0005093A5649B9DAB648F95AD646494AE64BE
:1020B000428EB064EF90B2646F96B964688AC1646E
:1020C0006997CD648091E2644693E664438EEC6444
:1020D0005B8BFE64EF8F2A65989D2F65788E39653E
:1020E000FC893B65558D3E65FA953F65AD9045652C
:1020F000CC8C4F65719551657E8B5765739459658E
:10210000B38B6265B88A6365558E6665D6936C65D8
:10211000688C706594907465AE907565479377652B
:102120007E958765B6958965C4908C656B958E653F
:10213000D68D9065E3949165C19497656C9399658C
:10214000BF979C65CE8EA165B488A465D28BA5652A
:10215000CB90A7658095AC65618EAD656692AF65E5
:102160007A8EB0655690B965FB95BC659789BD655B
:102170007B8EC565B797CB65F990CF65B091D76574
:10218000F88AE265F98AE565FA93E6655592E765AE
:102190008C8BE8657C8EE9658191EC657B8FED65C4
:1021A000AE88FA65A0890266568D0666A98D076617
:1021B000B88F0C66B98F0E66BE960F66A88D136633
:1021C000D5881466CC901F66AF9020666689256618
:1021D000748F276686962866F08D2D66BA8F2F66D7
:1021E000A5903466E39D3C668B9242669E8E436664
:1021F000578D4B66579052664E8E6666418A696669
:10220000D3946E6681956F66698C7466B0907666BD
:10221000BB8F7A6671928166C58B8766C989916624
:102220008B8F966667929766C388A266A892A66609
:10223000EF97AB66628EAE66E995B4665C96C7664C
:10224000DC93D9668C8FDC666A97DD669894F266BB
:10225000C88BF3666789F466588DF866918FF966C6
:102260008291FD665D91FE665C91FF66D691006786
:10227000C58D0367F09808678E8C09674C970B67CC
:10228000FC950D679E951467F18D1567BD921767D4
:102290004E981B675D961D67A9921F67FA8A28678B
:1022A000D8962A67A2962B6796962C677B962D6701
:1022B000448E3167E98E346770963A67F78A3D67D6
:1022C000808B4667579E496799904E679B974F67EB
:1022D000C7885067DE8D5167BA915367DB8E5667AA
:1022E000F18F5C676D935E67589E5F67A991616728
:1022F000F08F6267DB96656788976D67598D6F67AA
:10230000749471678C9375676E8B776766947E673C
:10231000BC8F7F67C2948767F8949067CD9095676C
:102320008D969767D1979A6787969C67CA899D67AC
:102330007D8EA0676798A2679590AF67CD8CB667D2
:10234000CB89C167C691C467BF95CA674195CF67FE
:102350009094D0675E96D167B98AD367F590D467B9
:102360005F8FD867D192DA674D97F1678C92F367E8
:10237000F696F467C48EF567F28DFB67B88DFE673D
:102380008F96FF67608A0268CC920368C8930468DE
:1023900068891368F0901668B2901768498C2168B4
:1023A0005A8D22689C8A2A68948A3468F190386829
:1023B0006A8A3968AA8D3C68698A3D68CD8D416812
:1023C000858C42686A8C43688D934868C4885068DD
:1023D000CB8B51684B8C5368BA8A54686A8B5C68A3
:1023E000F78D5D6891965F68568E67684F95766841
:1023F000B1898168C09785687E949368B288976830
:102400005B8DA268BD8FA768E68CA8689C97AF68B3
:10241000F292B068428AB168AB8DB568909EB6689A
:10242000818ABC688E93C468FC8AC968C796CB68E9
:10243000FB8ACD689E9ED2685F96DA684992DF6813
:102440008F93EE685890F268B190FA68BB8A006981
:102450006F980569D6880B69B8960D6941900E6929
:10246000C59219699A901B69918A1C699F8C34697D
:10247000CC933F69D6924A696B9753699695556993
:10248000C8915A695E916069ED936269E8936D69DC
:10249000C68B6F697C8F736980947569C98B7C6901
:1024A0004F987D69798A8269548A8A69E58D8E6937
:1024B0007C89946950989B695990AE69C49EC7699C
:1024C000A0EACB695C8DCC69C692CD698491D8694C
:1024D0006C97D9698A96FB69CE92FD6985910B6AE2
:1024E000F394176A9492196A57951F6ABE8F216AEE
:1024F000CD96296AA08C2A6AA1892B6A7E8A356AC0
:10250000BF8F396AF78E3A6A928A3D6A4D924B6A5A
:10251000B48B586A6B8B596AF29E5F6A408B616A12
:10252000C9937F6A808A806A68928E6AE78CAC6AF7
:10253000479FB86A459FBB6A429FC26A449FD36A5D
:102540004598DB6AF98BE86AA594046B9397056B51
:102550004F9F1D6B5489206B878C216B9F8E236B43
:10256000D38B276BA289326B7E973A6B5C8B3D6B6A
:10257000D48B3E6BBC8A4C6BCC894E6B5692536BA2
:10258000BD8A626B7E8E636BB390646B9F8D666B4E
:102590009095696BE0956A6B63986F6B958E736B22
:1025A000CE8D746BF0977B6B808E866B7796896B84
:1025B0007D8F8A6BEA8E8B6B638E966B4290B26BCB
:1025C000729FB46BA389B56B6992BA6B458EBB6B76
:1025D0006B8ABF6B6193C56B428BCD6BEA95CE6BFB
:1025E0008896D26BC593D46BE494D86BF994DB6B6B
:1025F000D196EC6B7B9FEF6B7E9F0F6C818E116C85
:10260000AF96176C438B236C869F346C8590376C28
:102610005895386C69893E6CC394406CF392416C58
:10262000608F426C818B4E6CC494506CAC8E576C36
:10263000BE8A5A6C98895D6CF0935F6C5D8D606C9E
:102640007292706CBF91726C828B7A6C888C7D6C8C
:10265000448B836C8097886CBE928C6CD793936C00
:10266000428C966CAB89996CB98DA16C7696A26CF4
:10267000F291AB6C9796B36CCD89B86CA695B96C9A
:10268000FB96BB6CA18EBC6CC08FBF6C8889C16C83
:10269000B58BC96CF290CA6C9194CC6CE594D56CF6
:1026A0004096E16C4196E26C6794E36C838BE56C39
:1026B0004493E86C8D92F06CD791F36C6A890B6D42
:1026C0006D97176DF4901B6D8C971E6DB493256DEF
:1026D000C392296D6B892A6D5E8D326D468F3B6D7D
:1026E000888A3E6D6894416DAC97446DF28F456D5C
:1026F000F3905C6D6C95666D5989696D5F8D6A6D3F
:1027000051986C6D5C8A6E6D8295746D8197776D52
:10271000438A786D5A90886DC18F8C6D4F97996DF3
:10272000DC979B6D93939C6DC093AF6D558AB26D92
:102730007489BC6DC197C06D8497CB6DD297D16DF4
:10274000698FD86D9193E16D5792EB6DFA88F16DB9
:102750005B90F36D7E8FF56DA395F76DAC8DFB6D82
:102760005993056EB490076E898A086ECF8D096EF5
:10277000C28F0B6E618F136E6B8C1A6E8D8F1B6EFA
:10278000B88C206E948B216E6E93256EAD88266E6C
:102790005189296EB7892C6EAA912F6E608D4A6E71
:1027A000A996566ECE8C586EC38F5B6E5892676E2C
:1027B0004E976F6E92937E6E70987F6EBC8E806E19
:1027C0009E968C6EAC94906EB98C966E808F9C6E3B
:1027D000AD979D6E618DA26EEC88B66E6E97BA6EE7
:1027E0004D93C56EC596CB6EA08ECC6EFC9FD16E00
:1027F0008A8AD36EE69FDD6EEA91DE6ED891F26E24
:10280000F89FF46E4893016F998B026F5995066F8C
:10281000BD8E096F978D0F6F5298116FF29F146FD5
:102820008989156F8691206F9994226FBF8A236FD3
:10283000F8972B6F9F962C6FD092316FF99F386F5E
:102840005191456FC18A546F898C5C6FF6905F6FB0
:10285000838A646F818F6E6FAA92706FD792846F34
:102860009F90976FC08AA46F56E0B16F6293C06F5C
:10287000838CC16FF791C36F5A94E06F8A8DE16FBB
:102880004794EB6F9497EF6FF39115706D951E70F1
:10289000D293267095922770EB912C70A3904C7078
:1028A000F39F5870E5936B70CE896F70949370703E
:1028B000448A7870848B7C70DC8E7D70D08D8970BA
:1028C00046988A7086908E708A89927075E09970A9
:1028D00074E0AC7078E0AD705992B87079E0B9707E
:1028E0005F93BA70D788C870F397CF704789D97053
:1028F00080E0DD707EE0F9704296097181E014712C
:102900008B89197184E01A71B0951C7183E0217173
:10291000B3962671C58F367152913C71C48F49713F
:10292000F9974C718AE04E71F79059718C896471F6
:1029300081946771C68F6971CF946E71CF8E7D71EE
:10294000F8908A71468C8F718DE094716F979F71AA
:102950006E8FA87191E0B1714D94C3715294C8719A
:102960009593C97197E0CE7199E0D071D397D271E8
:1029700096E0D5718D89D77193E0E5718791E67105
:10298000578EED714390FB718EE006729A942A7215
:10299000DC922C72A6E02D72A5E03272A8E03572AE
:1029A000DD8E367283953A72EA963D7275913E726B
:1029B000A28E4772D0954872C5944C72769452722A
:1029C000AB925972E5895B728D8B5D72C4965F72B2
:1029D000B4966172B2896272539867727196697225
:1029E000A8957272B5907972C1937D72A18C807234
:1029F000D28DA0725D8BAC72A28CAF72C694B6728F
:102A0000F38FC272B68BD072CF8CD772E78BD9722C
:102A10005F91DB729D8DE172C2E0E272C0E0E9720B
:102A2000EB8EEC72C693ED72B78BF8724B92F97223
:102A3000C3E0FC725498FD7282941B73D2961F738C
:102A4000C2972573CEE02A7396922B734C942E7303
:102A5000A38C36735097377351973E73CFE03F7313
:102A60008E894473968D4573828E6373628F68730B
:102A7000D5E07073D6E072736C8A8473BA8C8773F6
:102A8000A6978973CA8B8B73A4899673E88BA973F5
:102A9000DF8AB273E697C073DFE0C273CF89CA736F
:102AA000588ECD73BF92E073EC8EEA735D8CED733C
:102AB000C794FE73BB8C0374858B06749D97097451
:102AC000AE972274F4913374D4973474D58B3574E3
:102AD000FA94367469945A74E88C5B746C895E74E9
:102AE00090906074DA976A74F3E07374BA8D8374AB
:102AF0009E97B074C28ABD74A38EDC745A89E27446
:102B00005A95E674A28AF67472951175998D1875A6
:102B1000C38A1A7572901C755B931F75B6902375E6
:102B2000598E25759989267553E1287570972B75EF
:102B3000E19530756393317552973275628D3375B7
:102B40005C9037756A923A75AC923B75E68946752A
:102B50005BE14C75458A4F75D8885175A8945475BA
:102B6000C8945975AF975C757B925D75A49060753C
:102B7000A99462754C956575AA9766756C8C6A7593
:102B8000D4947075D9887375F48F7775EB937F75CE
:102B9000458B8B7544958E7561918F75609191759C
:102BA0005E8BAB757589B275E694B57572E1B975D2
:102BB0005D90BD7573E1BE75BE8EC5756195C775B7
:102BC000C78FD27579E1D475A48ED575AD8DD875C2
:102BD0009793DB75C992E2759F97E9758991F475B2
:102BE00073924276C3974C76E08A5276FC9656767C
:102BF000C8957A76AD947B766F937D7692947E7647
:102C00005395847649938676468A8776638D907647
:102C1000488EAE76E794BF764D8EC3767594C676B1
:102C20007E96C8766D89CA767689D7769093DB765C
:102C3000B790DF76BF96E376C48AE476D594EE76D5
:102C4000DA96F276D396F476BC92F8768A91FE768E
:102C5000828F0177C88F0977FB940B77C58A0C7731
:102C6000A78C1F775E902077B0963777C5E13A77CB
:102C7000AD923C77E18A4077859261778790637760
:102C8000C293667772966877C9E16B77CAE17E77FF
:102C9000CEE19177D2E1A577CB95AC77758FAD7703
:102CA000C497B377B593BC77D9E1DB77B596E27774
:102CB000EE96E5776D92E7778A94E977E98BED7781
:102CC0005A92EE77E2E1EF77B88BF377CE90027805
:102CD000BB8D1278E5E11478A48C1578D38D257816
:102CE00075932678D48D27786D8B32784396347817
:102CF0006A943A7876933F787B8D4578E9E15D7800
:102D0000C98F6B78B0976C78648D6F78A58C72786A
:102D1000A1947C78EDE18178E98C8778F4928D78C4
:102D2000568A9178E89493784F899578EA8D9778C8
:102D30007198A778C995A978D790AF78F3E1BA7858
:102D40006D8AC178A58ED078D694E8788196EF7890
:102D5000E9880179CA8F0E7962912B7949E23A7933
:102D6000A68E3C79E7973E79D08E40794AE2417948
:102D7000568C47795F8B4879468B4979838E507999
:102D80005397537950E25679639157794CE25D79C4
:102D90006A8F5E795F905F794DE260794BE262798C
:102DA00049946579CB8F68795B956D79D58D777905
:102DB00098938179D68B84795C98857954918A79B6
:102DC00053E28D79D0898E79F5928F799F95A67986
:102DD0009A8BB0794894BD79D78BBE79D189BF7968
:102DE000C393C079478FC179848ECB79488FD179CD
:102DF000C889D2796295D879E994DF796491E479C8
:102E00008994E6796090E9798192F079CC8FFB79A9
:102E1000DA88007A488B0B7AF6920E7AC590147A8B
:102E2000AB96177A42951A7A74921C7AC5971F7AD4
:102E300067E22E7AED8E327AEE883C7AD2893D7A3C
:102E40006D8C3F7A658D407A928D427AE495467A10
:102E500073964D7ACF904E7A6E894F7AB889507AB0
:102E6000AA88577A6EE2637AF58F6B7A6E8A747AE3
:102E70008A8C767A868B7A7AF38B7F7AFA90817A4B
:102E8000CB93837ADE90847AF38D927A8292937ACE
:102E90008B919F7A418CAA7A458CAE7A878BAF7AD8
:102EA0007197BA7A4D89C37A968ACB7AA797DC7ADA
:102EB000B397E07ACD8FE37A768FE57AB693EA7AA4
:102EC0004792EF7A5B92F67AA38BF97A7C92FA7A40
:102ED000B18EFF7AC68A087B888B117BCE8F1B7BD5
:102EE0004A93207B7D8A257B7990267B84952C7B59
:102EF000E691397BF98D467B4D95487BA494497BBF
:102F000099934B7BD88B4D7BA1E24F7BB394507B45
:102F10009EE2517B7D92527B9B93547B9A93567B8E
:102F2000F48D867BCD95877BD3898B7BB3E2927BB7
:102F3000B4E2947B9394957BA596977B5A8EA17B64
:102F4000C78AAA7B5C92AD7BFB90B17BA094B87BD7
:102F5000A294C07BDF90C47BCD94C77BD195C97B05
:102F60007A92E07BC28EE47BC493ED7B5598217C02
:102F7000C88A387CF4943E7CFA973F7CEB954D7C74
:102F8000D090737CC4957E7CE096817CCC8B827CD7
:102F9000488C897CB2958B7C88908D7CAE96927C97
:102FA000B197957C9494977C6591987C53949B7C85
:102FB0006C8F9F7CBE88A57C9F8AA77CCF8FBD7CB1
:102FC000EEE2BE7CB890C07CEFE2CA7CD08CCE7CB6
:102FD0005791D67C9C93DE7CB395DF7C8C91E07C12
:102FE000668DE77CC697F87C858EFB7C6E8CFE7CBC
:102FF0008A8B007D498B047DF196057D678D0B7D65
:10300000E4960D7D5B94107D5295147D838F177D22
:10301000D18E187D688D197D868E1A7D898B1B7DDA
:10302000B495207D6691217D6196227DF58D2B7D65
:10303000878E2C7DDB922F7DDD97307DD78D337D84
:103040006190397DD08F3A7DAE8D427D498F437D31
:10305000BC8C447D6791467D4AE34C7D6F8C507DEE
:103060008B8C5E7D698D617D8D97627DBA88667D72
:103070008B8B687D4FE3717D9D93757D478A767D4F
:10308000E290797DA68C997D708C9A7DB1919C7D22
:103090008E91AC7DF88EAD7DDB88B17D6A8DB27D81
:1030A000D496B47DD492BB7D5D92BE7DBB88BF7D3E
:1030B000C896CA7DD98BCB7DEA94CF7D8D91D17D89
:1030C000CE97D27D8F8FDA7DFC90E07DF792E87D00
:1030D000D295E97DC98AEC7DC996EF7DDC88F47DC7
:1030E000FB97FB7D6BE3017E8F89047EEA930A7E6A
:1030F0006FE31B7E9B941E7EC88E237E70E3267E2C
:10310000638F2B7E44962E7E6B8F3E7ED190417EC8
:10311000C9944A7E40914B7E718C4D7E4A8F547E7D
:103120004490557E55916D7E9A96707E4A8C827E33
:103130005B8E8F7E5A93367FCA8A6A7FDF8D6B7F64
:10314000728C6E7F7592707FB194727F908F757F55
:103150006C94777FEB94857F85978A7F72978E7FBB
:10316000FC94A47F518CA87F4191A97F608BBD7F87
:103170004889C17FA589C57FC0E3C67FC1E3CC7FF5
:103180008297D27F4B8FD47FC4E3E07F8990E67F24
:10319000C6E3EB7FE38AF07FCB8AFB7F7C96FC7FE4
:1031A0008397008073970180569803806C8D05800B
:1031B000D28E0C80A78E1080CF911280CEE3158026
:1031C0006B8D1780D5963380A88E3680EB963D8028
:1031D0005E924A80D6E35680B9905A80DAE35E80E8
:1031E000B79561808F916F80FC977380DEE3748068
:1031F000AE927680E1E3778045907E805798878015
:10320000A3948980F7938B805D988C80A794968097
:10321000D18F988049959B80E8E39D80CC8AA180DE
:10322000D28CA280888EA580EC94A980A88CAA80DC
:103230006296AF806D8DB1806E8DB280E788B4806C
:10324000E68DBA807894C380DD88C6805F92CC809A
:103250007794CE80D991DA80F3E3DE804596E180E1
:10326000D38CE480FB88F180F7E3F480B793F88097
:10327000B98BFD805C940281898E0581BA8B0681B1
:10328000C690078165980881AC960A81D2901A8110
:10329000728B3181459233815D943981AF924B813C
:1032A000FCE34E8174905081859554816F8D5581DA
:1032B00072985F8154E46B81EE8E7081988D788175
:1032C000B0927981A0957A8142917F81DA918F8144
:1032D000708D9A8186959C818C969D814795A08161
:1032E00050E4A8816396B3815691B58158E4BF81BB
:1032F0005E94C681B089D3819F91E3816290E5811C
:10330000E789E881D597EA81A98EED814C8FF38119
:103310008A8EF4817692FC8150890882BB8B0C8264
:10332000E3900E82C98E108272E41782DC951882B7
:10333000DA8A1B8243911C82778F1E8291951F82AD
:103340004D8F2A82718D2C82CA943582C791368224
:1033500095943782BD8C398244914782F8925A8283
:103360007CE464827EE46682CD8A6E82AF8D6F8259
:10337000C79772824690768290898B82F088998274
:1033800087959D82C58EA582488AA682B088AD8227
:103390006D94AF826390B182D489B3824696B8822D
:1033A0007C8CB982DA8BBD82E889C582A18AD18200
:1033B0009189D382E897D482DB91D7826395DB82AF
:1033C000D589E582E18EE682EA8BE7829792EB82ED
:1033D000CF93F1827089FA8295E40283CE960483BA
:1033E000D68905839D8A0E83738C1C83A9882883C4
:1033F000EF882B83A9E43483A0E436838392388357
:10340000F9913983A5E44083A4E4498390914A83E8
:10341000748C4F8360895283728D58839191778326
:10342000D7897B83AC899E83CE8AA283B0E4AB83A9
:103430009C94B1838997C5839B90CA83658BCC8309
:10344000DB8BD383D989D683D28FDC83D88DDF837E
:103450007093E983EC95EF83D889F083D48CF18362
:1034600048950484B8930C8447960E84DE8829849A
:103470008B9431849E8A3D848E97498474974E84C0
:10348000A897578498925B848B8A61849295638411
:103490009F936684AF886C84929171844B947584F9
:1034A000A8887A8498958B84D38F90844E8F948447
:1034B000AA8E9984D6969C8466959F84E5E4B2840E
:1034C000978AB884F68FBB84E8E4BC849391C48463
:1034D0007E92C9847597CB84578AD184AA96EC844E
:1034E0004896EE8440980085C18E1185CC95138551
:1034F000A0961A8555892685D3922D85FC88358519
:10350000A0913D85C1954385D7944985D48F4A853F
:10351000C78E4E85BC8B5785999568856E98698551
:10352000A0936A8593957E8551E5848596949785C9
:1035300092899985E393A6854591A985468EAA85AA
:103540006490AB854F8CAC85F296AE85F796AF85CF
:10355000928FC1856D98CD859597E485A193E98576
:10356000CB94F785938FFB859491078668912D8680
:1035700096974E86D58C5086738B5A86958B5C8633
:10358000B8975E86F18B6B868E927986F8937B86F0
:10359000B8888A86E18995865C8EA4866194C78600
:1035A000D68ECB866092CD86758CCE86618AD98682
:1035B0005E8ADB8681E5E486B894ED866795EE86C3
:1035C000D894F886FB91F9868CE5FE86E989028716
:1035D0004996188777921C87A8964987E4904B876D
:1035E0005898558749906687DA897687B1927F87A0
:1035F00088948287A5E58D875A97A287A3E5BA8725
:103600008697F287B3E5F987498AFB87618B05883E
:10361000A2E52288BFE540888C8C46884F8F4C8875
:10362000738D5388708F5788588A5B8871895D883D
:10363000D58F6188748D6388DF8868885C95708811
:103640008A9077888F927F88DC8B8888558C8B88CE
:10365000DC919688B391A288D9E5AB88ED94B488C3
:10366000D18CB788BF88C188D98DC288F497C588A6
:103670009591CF88A097D488E1E5D5885497DC88C8
:10368000E295DF88BE8DE188A197F388D68FF88810
:103690008797FD88BB90FE889E900789A195108929
:1036A0008C8A12894A961D89FAE55689A6895E890F
:1036B000FCE55F89DD8B668940E67289508F7789EA
:1036C00046E67F89BC90818976978689A29587890D
:1036D00065948B89A98C8F894B8B96898B8E978962
:1036E00060949A896F8AA7899797AA896590B38908
:1036F000CF8AD289708AE389F089E6894790008A67
:10370000BE8C028AF992088A768C0A8A75900E8A93
:10371000A293138A508C178AF591188A4C8B1B8AB6
:1037200061E61D8A62E61F8AD78F238A8D8C2A8ADA
:103730004B962D8ADD90318A968B338AF396348AA4
:103740006991368A64E63A8A66903B8A90923C8A0E
:10375000D88F508ABC8D518AC091548AD98F558A8E
:103760005D955E8A8C8E608A7289638A778C668AA0
:103770008E8E698A8D8E6B8A6C986E8A4691708A5D
:103780006C8B718A6298728A598A738ADA8F878AF7
:10379000D68C898A5F978C8A8F8E8D8A4694938A7D
:1037A000BE90958A6192988A55979E8AEA8CA08AE3
:1037B000BD90A48AEB8CAC8AE090AD8AC793B08AA6
:1037C0004E92B28ADB89B98AEE94BC8A628BBF8A38
:1037D000B292C78A6B92CB8ABF90CC8AD08ACD8AAC
:1037E00079E6CF8A7A90D28AC897D68A5F98DC8A9F
:1037F000B392E68AFA92E78A7EE6EB8A7CE6ED8A65
:103800004097EE8A908EF88A948FFA8ABF8CFE8A4F
:10381000F891008B6496018B7989028BE088048B88
:10382000A3930E8BE493198BAA8C1B8B758D1D8B28
:10383000D38E218B77972C8B5495338B90E6398BD5
:10384000DE8B498B9AE6588BAF8E5C8B8895668BA6
:10385000788C708B638B728BF78F778BEC8C838B70
:103860005D8E908B518F378C4A92468CA4934A8CF4
:103870004C965A8CD893618CDB8F6A8C8B8D798CAB
:103880005E958C8C65969D8C4C8A9E8CE592A08C66
:103890008995A18CE08DA28C768DA78C6E95A88CD5
:1038A000DD89A98CCC94AB8CD18AAC8CD390AF8CB5
:1038B0009992B08CE196B48C4D8BB68CC8E6B78CDF
:1038C0008394B88CDD91BB8CEF94BC8C5C93BF8CE3
:1038D0006696C08CEA89C28C4798C38CC092C48C0F
:1038E0006498C78C918ECA8CAF91CE8C4791D18C45
:1038F000F693D38C6F95DB8C5E8EDC8C928EDE8C97
:10390000DC8FE08C8594E28CAB8CE68C8A95EA8C1B
:10391000BF8EED8C7193FC8C778D048DD1E6058D77
:10392000D2E6088DA1910B8DE48A148DDBE6648DBF
:10393000D490668DCD8E6B8D718A708D9691748DBD
:103940008B95778D4E8B858DB4928A8D7A89A38DD8
:10395000EF8EA88D9690B38DAB91BE8DE4E6CB8DA6
:10396000EBE6DD8D978BE18DD590E88DD78CEA8DD8
:10397000ECE6EF8D4898F38DB592F58D48910A8E5F
:1039800078970F8EA593358EF9E6428EF8E6448E31
:10399000FB925F8ED690748E528F8D8EF496AB8E86
:1039A0006790AF8EEB8BBE8E5EE7CA8ED48ECB8EC9
:1039B00061E7CC8E4F8BCD8E528CD28EAC8CDF8E4D
:1039C000EE93E28E5D93F88EB28EFD8E798C038F2E
:1039D000728A098FDA8D0C8F71E7148FE3951D8F32
:1039E000508B298F79942A8FD6972F8F538F338FAF
:1039F00073E7388F41973B8F74E73F8F6097448F11
:103A00008D8A4D8F51935F8F8C8D618F448C628F27
:103A100080E79B8F68909E8FAB8EA38F85E7B08FDA
:103A20004392B18F4A90B28F5F94BA8FD395BB8F78
:103A3000D292BC8F9E8DBF8F4892C28F4989C48F0E
:103A40009896C58F7690CE8F7D8CD18FDF8BD48F5B
:103A5000D495E68FDE89E98FF493EB8F9794ED8F01
:103A60005293F08F718FF78FC096FD8FC7920090A1
:103A7000DE91019097910390A6930690748B0F901E
:103A8000A793109080921390FC92149072931790C9
:103A90008090199087941A90CA921D90C0901F90A0
:103AA000AC912090A2912290A788239041982E90CB
:103AB000DF913190548F329069903890ED883C902E
:103AC0004E954190D99342908B9045907892479033
:103AD000F68B4A9056974B905E894D90D5954E90B7
:103AE000DF895390B993549042925590E188599050
:103AF000A1EA5C90BB916090938961906B91639017
:103B0000AD8C6590799769904B936D9098916E907C
:103B1000D58E7590858F77904A91789049917A905B
:103B2000E2887C90C9977F90F0948490D28A91909B
:103B30005797A390DF93A6904D96AA90D78EB890F2
:103B40004093C190E888CA90788DCE905998E190C2
:103B5000538CE8909495ED90738AF5905897F79070
:103B6000BD8BFD9073932D9141934991D1934B91CE
:103B7000558F4C91DE8E4D917A944E919192529147
:103B8000F08E54918C9062917C906A918F976C9199
:103B9000568F7591798D7791938D78915F8E8791FE
:103BA000868F8D91E7919091ED8C9291C190979134
:103BB000AE949C91588FA491DD8FB891F88FC691E7
:103BC000CE94C791D18DC891DF8ECC91A297CD9123
:103BD000648FCE91EC96CF91CA97D191E08BD8911A
:103BE0004293DC91988ADD916A90E391DE92E691AE
:103BF0007496E791FA8B0D92DD930E92628A34925D
:103C0000E9973792D88C449253935B92948962924D
:103C1000AB946692DE8F71927A8D7E9267968092D7
:103C2000E28B8392658F8592BA9391924C91989290
:103C3000C1969A92B6929B92F3E7AD924B91CF9236
:103C4000F5E7D2924E96E4929B8FEA92DD95ED9243
:103C50007389F2926595F3929292F892988BFC9206
:103C60007C8D06934B8E10938D9018938E9020939D
:103C7000F98F2693D18B289364952B93E08E2C9308
:103C800042982F93F68D32935E984B93E7934D9322
:103C900074935493D5925B9362926C934C8C75930E
:103CA000AE8C7E93DF8F8C93998A9693BD8D97937C
:103CB00099919A93C892A7935A8AAE93C192B99355
:103CC00050E8C39356E8D1934C93DD9357E8E193C2
:103CD000BE8BE89353E81894E08F1994A893389416
:103CE000F6915194D38A5394F8967795B79280952C
:103CF000E59683954D918995C2958B954A8A8F95C6
:103D00005B899195D58A9395D48AA295D68AA395F5
:103D1000748AA4957D8DA595B494B2957B89C79539
:103D2000C588D895AC931C968C952A96E38D3296CF
:103D300068963B966A913F96A2884096C9914496B0
:103D40008D954D967E8D5096C08C5B96C3956296F0
:103D500040896396779064969C8F6596D78A6A9619
:103D60008694709641897396C2927596CB97769693
:103D7000A9937896A4977A96AF8C7D967A97859634
:103D8000F78B8696B2978896478C8A96E0918B96A9
:103D900040E48E964B8A8F968F909496758A95966E
:103DA000A6E89896A5E89996848C9B96DB8D9C96C0
:103DB000E18FA0964289A396D797A796A9E8B796D0
:103DC000EA97BB96C790BC96B994C0969D90C19651
:103DD000E58AC4965997C596EB89C696578FC796BC
:103DE000D98CCC96938ED196478EDB969790E2969F
:103DF000A397E396EF93E8964A89EA96E190EB96CB
:103E0000B48EF096B595F2965F89F696EB97F79695
:103E10008B97F996B9E8FB9664930097F98E07970C
:103E20006B900A97EC971C979A911E97E0892797B9
:103E3000B696329749985297C2905697F5965997E9
:103E4000C3905E97F1946297CA966997768A6D9748
:103E500078907497438C8497938A8B97DCE88D973E
:103E6000C6889897E28FA097668BAD97DA95D3971F
:103E7000D88AEE974294F397B989FB974389FF97C5
:103E8000BF8B0198C5950298B8920398A08D0598AC
:103E9000808D0698878F08987B900C98F1E8109891
:103EA00061971198E68A1298D0941398DA9317982C
:103EB0009C901898CC971A987A8C2C986A962D9882
:103EC000AA9334986F893798F5E83898F2E83B98C8
:103ED00070953C988A974698F7E84C98E8914D98E9
:103EE0007A8A4E987B8A5498E78A5598B08C58986D
:103EF000E88A5B985E935E98DE976798DA8CA8985C
:103F00009795AF9844E9DB98F294DF984890E2984F
:103F1000518BEF98D194F298F988F498B988FC986D
:103F2000948EFD984F96FE98FC8F0599DD960A9920
:103F30007B970C9961891099608E1399EC8921996E
:103F400051E92899D98A5799C08B9699F18E9999F8
:103F5000818DA8995D8AAC996E94B3997992B49940
:103F6000E993C1999D94C499CA91C5997789C699D5
:103F7000EC8BC899ED8BD0999392D299EE8BD59911
:103F8000ED89FF99788F0E9A528B129A9B91139A12
:103F9000B18C289ACB91309AAB93559A81E95A9A71
:103FA000C18BA89A9C8DB89A5B8AC49A9190CF9A3B
:103FB00090E9D19A91E9D39A92E9D49A93E9D89A5F
:103FC000828DEA9AAF94ED9A45953B9BF6E23C9B35
:103FD000538B419B408A429BB08D459BA3964E9B41
:103FE000B2E9549B82965A9B9B8B6F9B44988E9B05
:103FF000BC88929BA995AA9B8E96AB9B4C8EAD9B41
:10400000F88DAE9B4E91B99BC1E9C99BEF8CD69BB5
:10401000498EDB9BE291E89B7E8CF09BCEE9F19B85
:10402000CDE9F59BB1880D9C828A109C6B98249CED
:10403000DCE92D9C68952F9CF188399C8F8A3A9CED
:10404000CBE93B9C5689489C4C92529C9096579C3D
:10405000D897E59CB992E99CB594F39C5096F49C52
:10406000C296F69CCE93079DBC930E9DA8891B9D7E
:104070009589289D9B8A2B9DB08E2C9DA7893B9D61
:10408000838D5C9D4C89609D948D619DB7966C9DE0
:1040900051968F9D7B8CB49DDF92F29D6898F99D1F
:1040A000E991FA9DEB8D789EB28C7F9EAD8E939EAA
:1040B0005B98979EED979F9ED997A69E9E94B99EDA
:1040C0008D8DBA9ECB96BB9E8396BF9E9B96C49EBB
:1040D000A989CD9E6F8BD29E958DD99ED996DB9E58
:1040E000E1910E9F4393139FDB8C209F6C913B9F2C
:1040F00040954B9F56E2629FEE978D9FB49701FFCC
:10410000498103FF948104FF908105FF938106FF9D
:10411000958108FF698109FF6A810AFF96810BFF7B
:104120007B810CFF43810DFF7C810EFF44810FFFDB
:104130005E8110FF4F8211FF508212FF518213FFE8
:10414000528214FF538215FF548216FF558217FFC7
:10415000568218FF578219FF58821AFF46811BFFAB
:1041600047811CFF83811DFF81811EFF84811FFF0A
:10417000488120FF978121FF608222FF618223FF17
:10418000628224FF638225FF648226FF658227FF07
:10419000668228FF678229FF68822AFF69822BFFD7
:1041A0006A822CFF6B822DFF6C822EFF6D822FFFA7
:1041B0006E8230FF6F8231FF708232FF718233FF77
:1041C000728234FF738235FF748236FF758237FF47
:1041D000768238FF778239FF78823AFF79823BFF17
:1041E0006D813CFF5F813DFF6E813EFF4F813FFF50
:1041F000518140FF4D8141FF818242FF828243FF16
:10420000838244FF848245FF858246FF868247FF82
:10421000878248FF888249FF89824AFF8A824BFF52
:104220008B824CFF8C824DFF8D824EFF8E824FFF22
:104230008F8250FF908251FF918252FF928253FFF2
:10424000938254FF948255FF958256FF968257FFC2
:10425000978258FF988259FF99825AFF9A825BFF92
:104260006F815CFF62815DFF70815EFF608161FF35
:10427000A10062FFA20063FFA30064FFA40065FF2A
:10428000A50066FFA60067FFA70068FFA80069FFFA
:10429000A9006AFFAA006BFFAB006CFFAC006DFFCA
:1042A000AD006EFFAE006FFFAF0070FFB00071FF9A
:1042B000B10072FFB20073FFB30074FFB40075FF6A
:1042C000B50076FFB60077FFB70078FFB80079FF3A
:1042D000B9007AFFBA007BFFBB007CFFBC007DFF0A
:1042E000BD007EFFBE007FFFBF0080FFC00081FFDA
:1042F000C10082FFC20083FFC30084FFC40085FFAA
:10430000C50086FFC60087FFC70088FFC80089FF79
:10431000C9008AFFCA008BFFCB008CFFCC008DFF49
:10432000CD008EFFCE008FFFCF0090FFD00091FF19
:10433000D10092FFD20093FFD30094FFD40095FFE9
:10434000D50096FFD60097FFD70098FFD80099FFB9
:10435000D9009AFFDA009BFFDB009CFFDC009DFF89
:10436000DD009EFFDE009FFFDF00E0FF9181E1FFA7
:104370009281E2FFCA81E3FF5081E5FF8F81000057
:10438000000011241FBECFEFD8E0DEBFCDBF11E08B
:10439000A0E0B1E0ECEFF8EB02C005900D92A6387A
:1043A000B107D9F71AE0A6E8B1E001C01D92A33A1F
:1043B000B107E1F70E94C54A0C947C5C0C940000A4
:1043C0008A3019F48DE001D08AE0FF93EF93E091F9
:1043D0008601F0918701309709F00995EF91FF91DF
:1043E0000895FC018591803011F0EADFFBCF08953C
:1043F000FF27E0E230E247FF0CC0419597FF09C07C
:10440000EDE26095709580959095611D711D811DFF
:10441000911D27FF02C0219530E350E2AA27660FC5
:10442000771F881F991FAA1FA41710F0A41B63955C
:104430005A95A9F7AA3008F0A95FA05DAF93F3954C
:10444000611571058105910541F7ED3211F4EF9386
:10445000F395F21718F43F93F395FBCF8F91B0DFEC
:10446000FA95E1F70895DF93CF93CDB7DEB72596A0
:10447000E991F9918591803021F0853229F0A0DF12
:10448000F9CFCF91DF91089520E0E894559155320E
:10449000B1F3503311F4689455915A3348F45053A2
:1044A00080F3220F022E220F220F200D250FF4CFB2
:1044B0000EF4219589919991533609F3533729F1D7
:1044C000533559F1BC0188279927E8945C3621F4CB
:1044D0008991999168945591543639F446EF7EF05C
:1044E00077FF0DC08FEF9FEF0AC055374AE039F0D4
:1044F000583540E121F0523642E009F0C2CFFF9337
:10450000EF9376DFEF91FF91B5CFFF93EF93FC012F
:1045100081918030B9F354DFFBCFFF93EF9361DFDC
:10452000F1CF0B01DC01ED91FD91222733274427C8
:104530005527E8949AE001C0319660816032E1F33A
:10454000A8F16D3211F46894F7CF6A3378F56033CF
:1045500068F171F498E031966081613248F1623619
:1045600011F492E003C0683719F490E1319660814C
:104570006132F0F0613608F060526053B8F06A3092
:1045800018F067506A3090F0691780F481E2771B69
:1045900008F4790F769557954795379527958A951D
:1045A000B9F7260F381F481F581FE0CF80E001C021
:1045B00081E04EF466272095309540955095261F52
:1045C000361F461F561FFE93EE93D0012D933D9349
:1045D0004D935D93112408950F931F93CF93DF9311
:1045E0008C01EB01BA0120E030E00EC0F801E20FCF
:1045F000F31FDE01A20FB31F8D919C9191838083E5
:10460000425050402E5F3F4F4230510578F7CB016A
:104610008E7FDE01A80FB91FF801E80FF91F60FFB8
:1046200002C08C918083DF91CF911F910F910895EB
:10463000EF92FF920F931F93CF93DF93EC017A01D8
:104640008B018EEF9FEFAFEFBFEFE80EF91E0A1F51
:104650001B1F8A8D9B8DAC8DBD8D0297A109B10961
:10466000E816F9060A071B0728F020E030E040E0D2
:1046700050E012C02A8130E040E050E0C801B701AC
:104680000E94E05B9B01AC018AA59BA5ACA5BDA5E2
:10469000280F391F4A1F5B1FB901CA01DF91CF9153
:1046A0001F910F91FF90EF900895CF92DF92EF92BC
:1046B000FF920F931F93DF93CF93CDB7DEB7289769
:1046C0000FB6F894DEBF0FBECDBF6C017A01890131
:1046D0004BE050E00E94EC2206301105D0F0912F03
:1046E000979599279795802F8695492F482B902F3E
:1046F000979599279795812F8695592F582BF701D4
:10470000019111917F01040F151F80819181892BE7
:1047100031F747E050E0DE011196902F9F70892F0E
:10472000805D8A3308F0895FFD01E40FF51F808307
:104730004150504084E0169507958A95E1F70115A0
:10474000110559F7A40FB51F8EE78C9320E030E0D8
:10475000BA016150704014C08E2F81588F3118F00B
:10476000E05EED3158F42617370731F4D601A20F79
:10477000B31FCE0101960EC02F5F3F4F2F5F3F4FFB
:104780002417350798F7F601E20FF31FE081E032B6
:1047900019F7ECCF4830510510F0E0E206C0FC01FB
:1047A000E40FF51FE0814F5F5F4FED932F5F3F4FA9
:1047B0002830310578F328960FB6F894DEBF0FBE87
:1047C000CDBFCF91DF911F910F91FF90EF90DF90C0
:1047D000CF900895CF93DF93EB01823010F08BE000
:1047E00017C0A82FB0E0FD01EE0FFF1FE857FE4FE6
:1047F0000190F081E02D309709F01082209709F0A8
:104800001882AA0FBB1FA857BE4FCD93DC9380E040
:10481000DF91CF910895823010F08BE0089580935E
:104820008E0180E008952F923F924F925F926F9297
:104830007F928F929F92AF92BF92CF92DF92EF9230
:10484000FF920F931F93DF93CF93CDB7DEB7A99756
:104850000FB6F894DEBF0FBECDBF8CA36DA38A0147
:10486000823010F08BE067C4CCA0EC2DF0E0EE0FAE
:10487000FF1FE857FE4F608071806114710411F4CE
:104880008CE059C4D3011C928CA10E94325780FF46
:1048900002C083E050C482FF02C08AE04CC48CA1F5
:1048A00061E0AE014B5F5F4F0E94DF58882309F043
:1048B0003FC46D817E818F81988560387105810547
:1048C000910508F435C4BDA1BB2351F43FE3C32EC9
:1048D000D12CE12CF12CCD8ADE8AEF8AF88E04C02F
:1048E0001D8A1E8A1F8A188E9B01AC01CD88DE8826
:1048F000EF88F88C2C193D094E095F0928A339A3CC
:104900004AA35BA3C801019780239123892B19F443
:104910000115110519F568A179A18AA19BA120EDC6
:1049200037E040E050E00E94265C79018A012AE5E8
:1049300031E0E0E0F0E001C03196D9018D919D9128
:104940009D01A0E0B0E0E816F9060A071B07A0F3F6
:10495000EE0FFF1FEC5BFE4F008111814801892C97
:10496000992486948114910419F481E0882E912C65
:104970006401EE24FF24CC8EDD8EEE8EFF8E68A1C6
:1049800079A18AA19BA1A70196010E94265CC90179
:10499000DA01863F2FE0920720E0A20720E0B2076D
:1049A00050F0863F3FEF930730E0A30730E0B307B6
:1049B00008F0DAC302C49C01AD01220F331F441F6B
:1049C000551F280F391F4A1F5B1F2F5F3F4F4F4F47
:1049D0005F4F56954795379527952D5F3F4F4F4F22
:1049E0005F4F81E0898FBFEF2B2EB1E03B2E412C32
:1049F000512C220E331E441E551EA9E05694479496
:104A000037942794AA95D1F7F1E0CF2ED12CE12C41
:104A1000F12CCD86DE86EF86F88A20E230E040E099
:104A200050E029873A874B875C878D859E85AF85C7
:104A3000B889CD88DE88EF88F88C8C0D9D1DAE1D61
:104A4000BF1D898B9A8BAB8BBC8BA984BA84CB841A
:104A5000DC84A20CB31CC41CD51CA80EB91ECA1E33
:104A6000DB1E8C8D9D8DAE8DBF8D8A0D9B1DAC1D6B
:104A7000BD1D28A139A14AA15BA1281739074A0702
:104A80005B0708F457C32D833E834F8358878CA15F
:104A900063E0AE014F5F5F4F0E94DF58882369F4E7
:104AA00089819A81AB81BC810097A105B10529F06C
:104AB00081509048A040B04040F081E090E0A0E0FC
:104AC000B0E089839A83AB83BC8389819A81AB816F
:104AD000BC817C018D010894E108F10801091109EC
:104AE000EA0CFB1C0C1D1D1DB095A09590958195A1
:104AF0009F4FAF4FBF4FE822F9220A231B23EA182A
:104B0000FB080C091D09498D4330C9F48D859E852C
:104B1000AF85B8898E0D9F1DA01FB11F8D879E8701
:104B2000AF87B88B29893A894B895C892E0D3F1D47
:104B3000401F511F298B3A8B4B8B5C8B04C02E0C72
:104B40003F1C401E511EAD80BE80CF80D884C60160
:104B5000B5012D853E854F855889621B730B840BEB
:104B6000950B621973098409950929853A854B8546
:104B70005C85621B730B840B950B2C8D3D8D4E8DCC
:104B80005F8D0E94265C2EA33FA348A759A7398DAD
:104B9000323051F48EA19FA1A8A5B9A5865F9F4090
:104BA000A040B04070F4C6C2F98DF33051F42EA18C
:104BB0003FA148A559A5265F3F4F4040504008F40B
:104BC000B9C2E982FA820B831C839DA1992311F05B
:104BD00010EF8DC04D895E896F89788D4A0D5B1D00
:104BE0006C1D7D1DE2E3EE2EF12CE60CF71CF701A7
:104BF00020E032E001C0119221503040AFEF2F3F52
:104C00003A07C9F7830100511E4F80E891E0A1E007
:104C1000B0E0F80180839183A283B3834030F4E055
:104C20005F07FBEF6F07F0E07F07B0F4CB01BA013D
:104C300021EC3EE340E050E00E94265CC901DA012D
:104C4000F801278332E0B695A795979587953A9511
:104C5000D1F78F63868305C0D80117963C932E93B6
:104C600016978EEFF8018583F98DF33081F08D81F1
:104C70009E81AF81B88580509040A140B04010F037
:104C800086E001C084E0D80114968C9303C08CE0C8
:104C9000F80184838FE390E0A0E0B0E0F801808722
:104CA0009187A287B3878D819E81AF81B8858487E4
:104CB0009587A687B78720E3C22E22E0D22E6C0C00
:104CC0007D1C85E59AEAD3018D939C93E0EDFDEF81
:104CD0006E0E7F1E8CA1B70120E030E040E050E076
:104CE00001E00E946E58882309F022C218EF92E377
:104CF000E92EF12CE60CF71CF70180E092E001C0F0
:104D0000119201972FEF8F3F9207D1F7C70160E013
:104D100071E04BE050E00E94EC2280E092E0D7018D
:104D20001C969C938E931B97F30187AECD84DE84F3
:104D30001F96DC92CE921E9722E430E0620E731E24
:104D400081E0D3018C93EEEBFFEF6E0E7F1EF98DA9
:104D5000F33019F080E092E002C080E090E0D701EB
:104D600052969C938E9351978D819E81AF81B88589
:104D70008030E0E09E07E1E0AE07E0E0BE0720F40F
:104D8000F701948B838B05C0F70180A391A3A2A3A5
:104D9000B3A387E4C82ED12C6C0C7D1CD3011C93CB
:104DA000E9EBFFEF6E0E7F1E8FE390E0D70159967F
:104DB0009C938E9358978FEF90E05B969C938E9385
:104DC0005A972D893E894F89588D5C962D933D9336
:104DD0004D935C935F970E948F4969837A838B839D
:104DE0009C83B98DB33009F03FC0E3E4F0E0EE0EF0
:104DF000FF1ED7016D937D938D939C931397EDEBDD
:104E0000FFEFEE0EFF1ED70194962D923D924D922C
:104E10005C92979782E090E0A0E0B0E0F70184A771
:104E200095A7A6A7B7A781E090E091AB80AB86E0FD
:104E300090E093AB82AB02E7C02ED12C6C0C7D1CB2
:104E400080E8D3018C93E2E0F0E06E0E7F1E89E2F1
:104E5000D3018C93ECE8FFEF6E0E7F1EC701895BD8
:104E60009F4F6CE071E021C0D70197966D937D93C1
:104E70008D939C939A9757963C922E925697E6E57F
:104E8000F0E06E0E7F1E80E8D3018C93E2E0F0E04C
:104E90006E0E7F1E89E2D3018C93E8EAFFEF6E0E5F
:104EA0007F1EC7018B9660E271E043E150E00E94F3
:104EB000EC22970122503E4F3B8F2A8F85E59AEADC
:104EC000D9018D939C938CA1B7012D893E894F897F
:104ED000588D01E00E946E58882309F029C1B98DD0
:104EE000B33061F42D893E894F89588D2A5F3F4F39
:104EF0004F4F5F4F8CA1B7010E946E58F70180E0C1
:104F000092E001C0119201972FEF8F3F9207D1F7E6
:104F1000212F30E040E050E0898D8330C9F08130AE
:104F200029F080E09FEFAFEFBFEF04C080E09FEF7C
:104F3000AFEFB0E0822B932BA42BB52B89839A8300
:104F4000AB83BC83F30182AB93ABA4ABB5AB1FC007
:104F5000DA01C9019F6FAF6FBF6F89839A83AB83FB
:104F6000BC83F30182AB93ABA4ABB5AB8FEF9FEFE8
:104F7000AFEFBFEFF70184839583A683B7838FEFED
:104F80009FEFAFEFBFE080879187A287B3878CA1A7
:104F9000B70129893A894B895C8901E00E946E58E2
:104FA000882309F0C5C0F70180E092E001C01192AA
:104FB00001972FEF8F3F9207D1F7A988BA88CB8846
:104FC000DC880894A11CB11CC11CD11C81E090E0BC
:104FD000A0E0B0E016C08CA1B701A601950101E0E8
:104FE0000E946E58882309F0A3C00894A11CB11C2C
:104FF000C11CD11C89819A81AB81BC810196A11D04
:10500000B11D89839A83AB83BC8389819A81AB81EB
:10501000BC8182159305A405B505E8F2398D3330BE
:1050200011F089849A84150126010894211C311CF1
:10503000411C511C8CA1B701A601950101E00E9401
:105040006E58882309F074C008948108910881146F
:10505000910419F062015101E6CF498D433009F006
:105060005FC082E592E5A1E6B1E4F30182AB93ABC8
:10507000A4ABB5ABB4EECB2EB1E0DB2EEC0CFD1C3B
:1050800082E792E7A1E4B1E6F70181939193A193BE
:10509000B1932EA13FA148A559A5215030404040D1
:1050A0005040DF012D933D934D935D937D0182E050
:1050B00090E0A0E0B0E0F70180839183A283B38306
:1050C000A4E1CA2EAEEFDA2EEC0CFD1C85E59AEABF
:1050D000AA8DBB8D8D939C932D893E894F89588DC8
:1050E0002F5F3F4F4F4F5F4F2D8B3E8B4F8B588F16
:1050F0008CA1B70101E00E946E588D899E89AF890D
:10510000B88D0696A11DB11D8D8B9E8BAF8BB88F70
:105110008CA1B7012D893E894F89588D0E946E5808
:105120008CA160E040E050E00E94DF58882319F035
:1051300081E001C08EE0A9960FB6F894DEBF0FBEE5
:10514000CDBFCF91DF911F910F91FF90EF90DF9036
:10515000CF90BF90AF909F908F907F906F905F9017
:105160004F903F902F9008951C012D01F2E0220CEA
:10517000331C441C551CFA95D1F7E7E0CE2EE2E033
:10518000DE2EE12CF12C2C0C3D1C4E1C5F1C79E01A
:1051900056944794379427947A95D1F720E230E0DB
:1051A00040E050E02D873E874F87588B19861A863E
:1051B0001B861C8633E0398F38CC9C01AD012E5FF5
:1051C0003F4F4F4F5F4F220F331F441F551F82E049
:1051D00009CCFC01009789F08081882371F08681D9
:1051E00097818617970749F481810E940E5880FDA8
:1051F00002C080E0089583E0089589E008950F9348
:10520000CF93DF93EC019A01AB01BC016E5C7F4F41
:10521000898101E00E941558882311F023E029C0FC
:10522000C05DDD4F88819981C053D24085559A4A2F
:1052300011F022E01EC0C859DF4F88819981AA81F0
:10524000BB81C856D040B07086549144A445B0404C
:1052500011F420E00EC020E0CC57DF4F8881998107
:10526000AA81BB81B07086549144A445B04009F036
:1052700021E0822FDF91CF910F9108952F923F92DD
:105280004F925F926F927F928F929F92AF92BF9256
:10529000CF92DF92EF92FF920F931F93DF93CF9302
:1052A000CDB7DEB72A970FB6F894DEBF0FBECDBFDD
:1052B000FC019B01F42EA081B1818C91082F10E09C
:1052C000005310400A30110548F411968C91119743
:1052D0008A3321F41296B183A08304C080918E0199
:1052E000082F10E00230110510F08BE05CC2F801CD
:1052F000EE0FFF1FE857FE4F408151815A874987C3
:10530000D9014D935C93452B11F48CE04CC2E98597
:10531000FA858081882359F081810E940E5880FD92
:1053200006C0FF2009F43CC282FD38C239C2A985FB
:10533000BA851C9211960C93802F0E94325780FFE1
:1053400002C083E030C2FF2011F082FD27C28985B0
:105350009A8540E050E060E070E00E94FF288130D4
:1053600021F022243324210112C0E985FA85E0517D
:10537000FE4F8481882309F415C22084318442843D
:10538000538489859A85B201A1010E94FF28833048
:1053900011F481E008C2882309F004C2E985FA8586
:1053A00085AD96AD8050924009F0FCC129853A85C3
:1053B000285B3F4FD9018D919C911197A854B04023
:1053C000BA87A9875C01CC24DD24A114B104C104EF
:1053D000D10459F4AA5ABF4FAD90BD90CD90DC9046
:1053E0001397A655B040BA87A987E985FA85A68E96
:1053F000B78EC0A2D1A2EE5BFF4F4081E254F040D5
:10540000FA87E9874383842F8150823008F0CAC12C
:1054100027AD2283222309F4C5C130E0C9010197D9
:1054200082239323892B09F0BDC1ED5BFF4F808060
:105430009180E354F040FA87E98791868086C40121
:105440008F709070892B09F0ADC1EB5BFF4F8081AD
:105450009181E554F040FA87E9877C0100E010E093
:10546000E114F1040105110551F4EE5AFF4FE080FB
:10547000F18002811381E255F040FA87E98729859E
:105480003A85205C3F4FD9016D907C901197A054D4
:10549000B040BA87A9876114710409F483C1242F2D
:1054A00030E040E050E0C601B5010E94E05B698356
:1054B0007A838B839C83930140E050E02D833E836D
:1054C0004F835887E4E096948794EA95E1F7540176
:1054D000CC24DD24A20EB31EC41ED51EA60EB71EFC
:1054E000C81ED91EEA14FB040C051D0508F45AC198
:1054F000EA18FB080C091D09A985BA8512962C919A
:1055000030E040E050E0C801B7010E94265CC901CC
:10551000DA010097A105B10509F444C1863FEFE027
:105520009E07E0E0AE07E0E0BE0718F499249394EC
:105530000DC0863FFFEF9F07F0E0AF07F0E0BF0729
:1055400018F043E0942E02C032E0932E22E0E22EC7
:10555000F12C012D112DE80EF91E0A1F1B1FA98524
:10556000BA855A96ED92FD920D931C935D97A20C0D
:10557000B31CC41CD51CFD01A2A6B3A6C4A6D5A607
:105580008D819E81AF81B885820D931DA41DB51DAF
:1055900082A393A3A4A3B5A320853185F3E09F162E
:1055A000F1F4232B09F0FEC029853A85225A3F4F9A
:1055B000F90180819181A281B381EE55F040FA8793
:1055C000E98786A397A3A0A7B1A7A8019701F2E056
:1055D000220F331F441F551FFA95D1F733C0232BD9
:1055E00009F4E0C029813A814B815C81820F931FCD
:1055F000A41FB51FE985FA8586A397A3A0A7B1A725
:10560000D801C701880F991FAA1FBB1FF2E09F1680
:1056100019F49C01AD0116C09C01AD012E0D3F1D7A
:10562000401F511F569547953795279581E090E08B
:10563000A0E0B0E0E822F9220A231B232E0D3F1D33
:10564000401F511F21503E4F4F4F5F4F69E056950D
:105650004795379527956A95D1F7E985FA85868D1F
:10566000978DA0A1B1A182179307A407B50708F4ED
:1056700099C08FEF9FEFAFEFBFEF86879787A08B23
:10568000B18B1286138614861586B3E09B1609F03B
:1056900065C01582EE59FF4F20813181E256F040FE
:1056A000FA87E98740E050E0220D331D441D551D67
:1056B000228B338B448B558BBF016E5C7F4F818176
:1056C00001E00E941558882309F048C0E985FA8551
:1056D000E05DFD4F80819181E053F240FA87E987D8
:1056E00085559A4A09F03AC0E985FA8582A993A9B5
:1056F000A4A9B5A982559245A146B14479F5298559
:105700003A852A5E3D4FF90180819181A281B38162
:10571000E651F240FA87E98782579247A144B146A1
:10572000E9F429853A85225E3D4FF9018081918116
:10573000A281B381EE51F24082879387A487B58717
:10574000E65EFD4F80819181A281B381EA51F240F2
:10575000FA87E98786879787A08BB18BA985BA8559
:105760009C9280918C0190918D01019690938D0176
:1057700080938C0117969C938E931697E985FA85F2
:1057800016A617A610AA11AA1482A985BA8556963C
:105790001D921D921D921C92599702C08AE003C06F
:1057A00080E001C08DE02A960FB6F894DEBF0FBEF0
:1057B000CDBFCF91DF911F910F91FF90EF90DF90C0
:1057C000CF90BF90AF909F908F907F906F905F90A1
:1057D0004F903F902F9008956F927F928F929F925B
:1057E000AF92BF92CF92DF92EF92FF920F931F93EF
:1057F000CF93DF93EC014A015B01CEA4DFA4E8A8BC
:10580000F9A8C416D506E606F70609F44EC08C8141
:105810008823A1F1B2E36B2E712C6C0E7D1E898161
:10582000B301A701960101E00E946E588823D9F5C3
:105830001C828E8D9F8DA8A1B9A12AA13BA14CA14C
:105840005DA1820F931FA41FB51FC816D906EA06D3
:10585000FB06A0F41B8110C08E8D9F8DA8A1B9A15D
:10586000C80ED91EEA1EFB1E8981B301A70196014D
:1058700001E00E946E581150123070F781149104AB
:10588000A104B10491F0BE016E5C7F4F8981A50136
:10589000940101E00E941558882329F48EA69FA642
:1058A000A8AAB9AA03C081E001C080E0DF91CF912E
:1058B0001F910F91FF90EF90DF90CF90BF90AF902E
:1058C0009F908F907F906F9008950F93CF93DF9369
:1058D000EC0140E050E060E070E00E94EC2B882397
:1058E00009F05EC08881833009F052C08D81882321
:1058F00009F44EC01EA61FA618AA19AABE016E5C06
:105900007F4FFB0180E092E001C0119201972FEFE1
:105910008F3F9207D1F7C05DDD4F85E59AEA998305
:105920008883C053D24082E592E5A1E6B1E48AAB18
:105930009BABACABBDABCA5EDD4F82E792E7A1E4A7
:10594000B1E688839983AA83BB83C651D2408E85F2
:105950009F85A889B989C65EDD4F88839983AA830C
:10596000BB83CA51D2408A859B85AC85BD85C25E0A
:10597000DD4F88839983AA83BB83CE51D2402A8985
:105980003B894C895D89898101E00E946E581D82A6
:10599000898160E040E050E00E94DF58811181E0A1
:1059A000DF91CF910F9108950F931F93CF93DF93C2
:1059B000EC016A817B81888199810E94E928982F76
:1059C0008823E1F58C8185FF39C04A8D5B8D6C8D14
:1059D0007D8D888199810E94EC2B982F882371F509
:1059E0000E8D1F8DF8018385806283878A859B8554
:1059F000AC85BD85848F958FA68FB78F8E859F854B
:105A0000938F828F8E859F85A889B989CD01AA271A
:105A1000BB27958B848B0E948F49F801668B778B0F
:105A2000808F918F8C818F7D8C83E881F98181E0DB
:105A30008483888199810E94652C982F892FDF911A
:105A4000CF911F910F910895CF93DF93EC010E94A6
:105A5000D42C882311F419821882DF91CF910895F4
:105A60008F929F92AF92BF92CF92DF92EF92FF926E
:105A70000F931F93CF93DF93EC016A017B014801E1
:105A80005901423051056105710508F4D1C08A8D74
:105A90009B8DAC8DBD8D481759076A077B0708F0B1
:105AA000C7C08881823009F470C0833009F48CC08B
:105AB000813011F022E0B9C08A0116950795040FD4
:105AC000151FA801452F5527469560E070E08AA173
:105AD0009BA1ACA1BDA1480F591F6A1F7B1FCE011E
