:100000000C9434000C9449000C9449000C94490061
:100010000C9449000C9449000C9449000C9449003C
:100020000C9449000C9449000C9449000C9449002C
:100030000C9449000C9449000C9449000C9449001C
:100040000C9449000C9449000C9449000C9449000C
:100050000C9449000C9449000C9449000C944900FC
:100060000C9449000C94490011241FBECFEFD8E036
:10007000DEBFCDBF11E0A0E0B1E0E6E6F9E002C0EE
:1000800005900D92A036B107D9F70E94E5030C94B4
:10009000B1040C940000CF93DF931F92CDB7DEB76D
:1000A000198221E030E0AE014F5F5F4F65E780EDE0
:1000B0000E94540381E09981983609F080E00F9006
:1000C000DF91CF9108950F931F93CF93DF9300D0CB
:1000D00000D000D0CDB7DEB78C0126E030E0AE0115
:1000E0004F5F5F4F6BE380ED0E945403898190E086
:1000F000982F88272A81822BF801918380832B8176
:1001000030E0322F22278C81282B338322832D81CC
:1001100030E0322F22278E81282B358324832696A8
:100120000FB6F894DEBF0FBECDBFDF91CF911F9108
:100130000F910895CF93DF9300D0CDB7DEB788231A
:10014000C1F0813061F521E030E0AE014F5F5F4FDB
:100150006BE680ED0E945403898180648A8321E0EC
:1001600030E0AE014E5F5F4F6BE680ED0E942203F0
:100170002BC021E030E0AE014F5F5F4F6BE680EDBA
:100180000E94540389818F7B8A8321E030E0AE0195
:100190004E5F5F4F6BE680ED0E94220315C021E0A9
:1001A00030E0AE014F5F5F4F6BE680ED0E9454037D
:1001B000898180648A8321E030E0AE014E5F5F4F29
:1001C0006BE680ED0E9422030F900F90DF91CF919C
:1001D0000895CF93DF931F92CDB7DEB7823049F0F9
:1001E000833051F0813011F0198208C088E0898392
:1001F00005C080E1898302C088E1898321E030E085
:10020000AE014F5F5F4F6BE180ED0E9422030F90C4
:10021000DF91CF910895CF93DF9300D0CDB7DEB7B4
:100220008130E9F030F0823089F1833009F445C043
:100230005AC021E030E0AE014F5F5F4F6CE180EDCE
:100240000E9454038981877E8A8321E030E0AE01D9
:100250004E5F5F4F6CE180ED0E94220359C021E0A8
:1002600030E0AE014F5F5F4F6CE180ED0E945403C0
:100270008981877E88608A8321E030E0AE014E5F0D
:100280005F4F6CE180ED0E94220342C021E030E02C
:10029000AE014F5F5F4F6CE180ED0E945403898196
:1002A000877E80618A8321E030E0AE014E5F5F4F40
:1002B0006CE180ED0E9422032BC021E030E0AE0112
:1002C0004F5F5F4F6CE180ED0E945403898188612C
:1002D0008A8321E030E0AE014E5F5F4F6CE180ED3C
:1002E0000E94220315C021E030E0AE014F5F5F4F56
:1002F0006CE180ED0E9454038981877E8A8321E02E
:1003000030E0AE014E5F5F4F6CE180ED0E94220352
:100310000F900F90DF91CF910895CF93DF9300D08E
:10032000CDB7DEB78130E9F030F0823089F183302B
:1003300009F445C05BC021E030E0AE014F5F5F4F84
:100340006BE680ED0E9454038981887F8A8321E0D7
:1003500030E0AE014E5F5F4F6BE680ED0E942203FE
:100360005BC021E030E0AE014F5F5F4F6BE680ED98
:100370000E9454038981887F81608A8321E030E074
:10038000AE014E5F5F4F6BE680ED0E94220344C0DA
:1003900021E030E0AE014F5F5F4F6BE680ED0E94E1
:1003A00054038981887F82608A8321E030E0AE0136
:1003B0004E5F5F4F6BE680ED0E9422032DC021E06F
:1003C00030E0AE014F5F5F4F6BE680ED0E9454035B
:1003D0008981887F83608A8321E030E0AE014E5FAF
:1003E0005F4F6BE680ED0E94220316C021E030E0F3
:1003F000AE014F5F5F4F6BE680ED0E945403898131
:10040000887F81608A8321E030E0AE014E5F5F4FDC
:100410006BE680ED0E9422030F900F90DF91CF9149
:1004200008950E94D10281E00E948D0182E00E9425
:10043000E90080E00E940B0180E00E949A0008958C
:10044000CF92DF92EF92FF920F931F93CF93DF93A0
:1004500000D000D000D0CDB7DEB7FC01AE014F5FB9
:100460005F4F86E0DA011D928A95E9F7C080D1805E
:10047000E280F380F094E094D094C094C11CD11C2D
:10048000E11CF11CC082D182E282F38204811581D9
:100490002681378130952095109501951F4F2F4F5C
:1004A0003F4F048315832683378380859185A285FA
:1004B000B385B095A095909581959F4FAF4FBF4F55
:1004C00080879187A287B387D982CA821B830C83D6
:1004D0009D838E8326E030E066E080ED0E9422035B
:1004E00026960FB6F894DEBF0FBECDBFDF91CF9139
:1004F0001F910F91FF90EF90DF90CF900895CF93D1
:10050000DF93CDB7DEB7EC970FB6F894DEBF0FBE22
:10051000CDBF19821A821B821C821D821E821F82FD
:10052000188619861A861B861C86CE0101960E94A3
:10053000200282E00E940B014AE0BE01635F7F4F10
:1005400089819A810E947C044AE0BE01635E7F4FEC
:100550008D819E810E947C044AE0BE01635D7F4FD5
:1005600089859A850E947C04CE010D960E94B00375
:1005700080E091E00E94B003CE014D960E94B0034E
:1005800080E091E00E94B003CE018D960E94C603E8
:10059000EC960FB6F894DEBF0FBECDBFDF91CF91C2
:1005A000089588E48093B8000895ECEBF0E01082A1
:1005B00094EA908390819923ECF79091B900987F09
:1005C0009830A1F48093BB0084E88093BC00ECEBEE
:1005D000F0E080818823ECF79091B900987F983102
:1005E00039F081E0903429F480E0089581E00895A5
:1005F00080E008958093BB0084E88093BC00ECEB1E
:10060000F0E080818823ECF79091B900987F81E039
:10061000983209F480E0089584EC8093BC00ECEB00
:10062000F0E080818823ECF78091BB00089584E896
:100630008093BC00ECEBF0E080818823ECF78091A4
:10064000BB000895CF92DF92FF920F931F93CF9339
:10065000DF93C62F6A0189010E94D502F82E81110D
:1006600015C08C2F0E94FA020115110559F0E60100
:100670000C0D1D1D89910E94FA0281110AC0C0173C
:10068000D107C1F784E98093BC0005C0FF24F3942F
:1006900002C0FF24F3948F2DDF91CF911F910F9112
:1006A000FF90DF90CF900895AF92BF92DF92EF92CC
:1006B000FF920F931F93CF93DF93182F062F5A01AA
:1006C000E9010E94D502811122C0802F0E94FA0206
:1006D000812F81600E94D502D82E81111BC08E010E
:1006E0000150110951F0E5017501E00EF11E0E9463
:1006F0000C038993CE15DF05D1F7E501C00FD11F9B
:100700000E941703888384E98093BC0005C0DD2420
:10071000D39402C0DD24D3948D2DDF91CF911F910E
:100720000F91FF90EF90DF90BF90AF9008951092DF
:10073000C50087E68093C400E0ECF0E080818D7F07
:10074000808388E18093C10086E08093C200089591
:10075000E0ECF0E0908195FFFDCF8093C600089516
:100760000F931F93CF93FC018081882359F08F0151
:10077000C0E00E94A803CF5FF801EC0FF11D80815B
:100780008111F7CFCF911F910F9108950F931F9370
:10079000CF938C01FC018081882351F0C0E00E943E
:1007A000A803CF5FF801EC0FF11D80818111F7CF15
:1007B0008AE00E94A803CF911F910F91089588238A
:1007C00011F02D9A08952D980895CF93DF93CDB70A
:1007D000DEB7E6970FB6F894DEBF0FBECDBF259A01
:1007E0000E94970390E080E80FB6F8948093610030
:1007F000909361000FBE0E9411020E944B0088235B
:1008000041F082E091E00E94C60381E00E94DF0394
:1008100026C081E00E94DF038FE191E00E94C603C1
:1008200012E380E00E94DF032FEF80E792E0215087
:1008300080409040E1F700C0000081E00E94DF03AB
:100840002FEF80E792E0215080409040E1F700C018
:1008500000008CE491E00E94B003115011F781E395
:1008600091E00E94C6030E947F028EE491E00E9404
:10087000C60382E00E940B0110E001E0F12CCE01E2
:1008800001960E9463004AE0BE01695F7F4F898143
:100890009A810E947C044AE0BE01695E7F4F8B8191
:1008A0009C810E947C044AE0BE01695D7F4F8D817E
:1008B0009E810E947C04CE0107960E94B0038DE5C4
:1008C00091E00E94B003CE0147960E94B0038DE5EF
:1008D00091E00E94B003CE0187960E94C6038FE389
:1008E0009CE90197F1F700C00000802F11118F2DB6
:1008F000182F0E94DF03C3CFBB274A3031F499235E
:1009000022F4BDE2909581959F4F0C948804BB27FB
:10091000FB015527AA27880F991FAA1FA41710F0BB
:10092000A41B83955051B9F7A05DAA3308F0A95DC7
:10093000A193009779F7B111B1931192CB010C9467
:10094000A104DC01FC01672F71917723E1F7329755
:1009500004C07C916D9370836291AE17BF07C8F39A
:060960000895F894FFCF9A
:100966005F003D3D3D20494D5520776F726B696EA6
:10097600672070726F7065726C79203D3D3D003D59
:100986003D3D20494D55204552524F52203D3D3D5B
:100996000043616C6962726174696E6720416363CA
:1009A600656C65726F6D657465722E2E2E004361DF
:1009B6006C6962726174696F6E204F4B0020000093
:00000001FF
