S0170000414B5F736572766F5F74696D6572312E7372656342
S11300000C9434000C943E000C943E000C943E007E
S11300100C943E000C943E000C943E000C943E0064
S11300200C943E000C943E000C943E000C943E0054
S11300300C943E000C943E000C943E000C943E0044
S11300400C943E000C943E000C943E000C943E0034
S11300500C943E000C943E000C943E000C943E0024
S11300600C943E000C943E0011241FBECFEFD8E048
S1130070DEBFCDBF0E9440000C9482000C940000AF
S1130080E0E8F0E0808182688083E1E8F0E080814C
S11300908A6180838FE39CE9909387008093860034
S11300A0219A21E030E089EE93E0E8E8F0E0BFEF48
S11300B0AFEF11E000E0AC01440F551F51834083C2
S11300C0A901440F551F440F551F440F551FB90173
S11300D0660F771F460F571F840F951F883948E016
S11300E0940738F48538C3E09C0728F4212F302F77
S11300F002C02B2F3A2FCFE3DFE12197F1F700C0A5
S10B01000000D9CFF894FFCFF1
S9030000FC
