:100000000C94B1000C94CE000C94CE000C94CE0055
:100010000C94CE000C94CE000C94CE000C94CE0028
:100020000C94CE000C94CE000C94CE000C94CE0018
:100030000C94CE000C94CE000C941C010C94CE00B9
:100040000C94CE000C94CE000C94CE000C94CE00F8
:100050000C94CE000C94CE000C94CE000C94CE00E8
:100060000C94CE000C94CE0000407A10F35A00A0FD
:10007000724E18090010A5D4E80000E87648170071
:1000800000E40B54020000CA9A3B000000E1F505B1
:10009000000080969800000040420F000000A086FB
:1000A00001000000102700000000E803000000002D
:1000B0006400000000000A000000000001000000D1
:1000C00000002C76D888DC674F0823DFC1DFAE59EB
:1000D000E1B1B796E5E3E453C63AE651997696E87E
:1000E000E6C28426EB898C9B62ED407C6FFCEFBC02
:1000F0009C9F40F2BAA56FA5F490055A2AF75C932D
:100100006B6CF9676DC11BFCE0E40D47FEF520E662
:10011000B500D0ED902E0300943577050080841E45
:10012000080000204E0A000000C80C333333330FA0
:10013000986E12831141EF8D2114893BE65516CF3D
:10014000FEE6DB18D1844B381BF77C1D901DA4BB49
:10015000E424203284725E228100C9F124ECA1E5FE
:100160003D2711241FBECFEFD8E0DEBFCDBF11E089
:10017000A0E0B1E0E6E9F9E002C005900D92A834F4
:10018000B107D9F721E0A8E4B1E001C01D92A03584
:10019000B207E1F70E9473010C94C9040C940000AB
:1001A00084B5826084BD8AEF87BD85B5836085BDD7
:1001B000EEE6F0E0808182608083789416BC08953A
:1001C000609148017091490180914A0190914B01E1
:1001D0000895CF92DF92EF92FF92209148013091E3
:1001E000490140914A0150914B01C6B4D12CCC0C2D
:1001F000DD1CCC0CDD1C0D2C000CEE08FF08A8EE5D
:10020000B3E00E943802C60ED71EE81EF91EC09247
:100210004C01D0924D01E0924E01F0924F0160915D
:100220004C0170914D0180914E0190914F01FF90D2
:10023000EF90DF90CF9008951F920F920FB60F921C
:1002400011248F939F93AF93BF9380914801909116
:100250004901A0914A01B0914B010196A11DB11D28
:100260008093480190934901A0934A01B0934B01B8
:10027000BF91AF919F918F910F900FBE0F901F90E4
:1002800018951092C50087E68093C400E0ECF0E07A
:1002900080818D7F808388E18093C10086E0809398
:1002A000C2000895E0ECF0E0908195FFFDCF8093CF
:1002B000C60008950F931F93CF938C01FC0180819A
:1002C000882351F0C0E00E945201CF5FF801EC0F8B
:1002D000F11D80818111F7CF8AE00E945201CF91F8
:1002E0001F910F910895CF93DF93CDB7DEB7E097BD
:1002F0000FB6F894DEBF0FBECDBF0E94D0000E94A3
:10030000410180E091E00E945A010E94E0006B01EF
:100310007C012FEF83ED90E3215080409040E1F786
:1003200000C000000E94E0006C197D098E099F0941
:100330000E94EC018E010F5F1F4F22E045E00E94FA
:100340004302C8010E945A018AE191E00E945A01C9
:100350000E94E9006B017C018FEC97E00197F1F7B7
:1003600000C000000E94E9006C197D098E099F09F8
:100370000E94EC01005F1F4F22E045E00E94430213
:10038000C8010E945A0181E391E00E945A010E9433
:10039000E9006B017C018FE391E00197F1F700C068
:1003A00000000E94E9006C197D098E099F090E94D6
:1003B000EC01005F1F4F22E045E00E944302C801AC
:1003C0000E945A019FEF2BE782E991502040804024
:1003D000E1F700C0000095CFE89409C097FB3EF418
:1003E00090958095709561957F4F8F4F9F4F992382
:1003F000A9F0F92F96E9BB279395F6958795779500
:100400006795B795F111F8CFFAF4BB0F11F460FFBF
:100410001BC06F5F7F4F8F4F9F4F16C0882311F017
:1004200096E911C0772321F09EE8872F762F05C02B
:10043000662371F096E8862F70E060E02AF09A95C6
:10044000660F771F881FDAF7880F9695879597F9BB
:100450000895A29FB001B39FC001A39F700D811D9D
:100460001124911DB29F700D811D1124911D0895BD
:100470000E942902A59F900DB49F900DA49F800D0E
:10048000911D11240895EF920F931F93CF93DF9343
:10049000E80147FD02C034E001C034E1E42F440F1D
:1004A000FF0BF7FF03C0F195E195F109E32E022F51
:1004B0002E2FAE010E946302CE01DF91CF911F91DA
:1004C0000F91EF9008954F925F926F927F929F925B
:1004D000AF92BF92CF92DF92EF92FF920F931F9352
:1004E000CF93DF93CDB7DEB729970FB6F894DEBF71
:1004F0000FBECDBF6A01122FB02E2BE3201720F0C4
:10050000FF24F394F00E02C0BCE3FB2E0F2D27E076
:10051000AE014F5F5F4F0E94F103AC018981982FBC
:100520009970913031F0E1FC06C0E0FE06C090E227
:1005300005C09DE203C09BE201C090E0EE2DE0719A
:1005400083FF3CC0911102C083E001C084E08117A9
:1005500018F4212F281B01C020E0E1110BC0F60187
:10056000822F30E2882319F031938150FBCFC20EE5
:10057000D11C20E0992329F0D6019C93F6013196F5
:100580006F01C6010396E2FE0AC03EE4D6013C9329
:1005900041E411964C93119712963C9306C03EE6A7
:1005A000F601308341E641833283FC01322F40E281
:1005B000332309F442C041933150FACF82FF44C043
:1005C000911102C083E001C084E0811718F4212F4B
:1005D000281B01C020E0E1110BC0F601822F30E2A0
:1005E000882319F031938150FBCFC20ED11C20E03B
:1005F000992329F0D6019C93F60131966F01C6012B
:100600000396E2FE0BC039E4D6013C933EE411961A
:100610003C93119736E412963C9307C039E6F601F5
:1006200030833EE6318336E63283FC01322F40E2EE
:10063000332319F041933150FBCFFC01E20FF11D40
:1006400010828EEF9FEFB7C0F1E0911101C0F0E092
:100650006F2F70E01416150624F49A012F5F3F4F98
:1006600002C021E030E0260F371FBB2029F06B2DA0
:1006700070E06F5F7F4F02C060E070E0260F371FB1
:10068000612F70E0261737071CF4121B212F01C0C1
:1006900020E03E2D387159F4D601322F60E2332329
:1006A00019F06D933150FBCFC20ED11C20E0FF2317
:1006B00031F0D6019C93B6016F5F7F4F6B01E11162
:1006C0000BC0F601922F30E3992319F0319391502A
:1006D000FBCFC20ED11C20E09F2D940F3A81782FC2
:1006E0007071A72E84FF03C0313309F4915019169D
:1006F00024F4993018F098E001C091E0E42F852FA0
:1007000057FF02C0E0E080E06E2F782FE0E0F0E0DD
:10071000AEE29A2E3A01691A71082A01461A570A5E
:100720000B2D10E01195019511096F3F8FEF7807A0
:1007300029F4D6019C92C60101966C014617570711
:1007400084F0661677066CF47F01E40CF51CA1E0DA
:10075000B0E0AC0FBD1FEA0EFB1ED7011196BC9096
:1007600002C090E3B92E615071093196C60101961D
:100770007C016017710724F0D601BC926C01D5CFC3
:100780006417750741F4363320F4353321F4A11092
:1007900002C081E3B82EF601B082F701822F90E209
:1007A000882319F091938150FBCFF701E20FF11DDF
:1007B000108280E090E029960FB6F894DEBF0FBE5D
:1007C000CDBFDF91CF911F910F91FF90EF90DF9000
:1007D000CF90BF90AF909F907F906F905F904F9021
:1007E0000895283008F027E03327DA01990F311DEA
:1007F00087FD916000966105710539F432602E5FC6
:100800003D9330E32A95E1F708959F3F30F080381B
:100810007105610509F03C5F3C5F3D93913008F044
:100820008068911DDF93CF931F930F93FF92EF92F8
:10083000192F987F9695E92F96959695E90FFF27A2
:10084000EE53FF4F99273327EE24FF24A701E7013A
:1008500005900894079428F4360FE71EF81E491FE8
:10086000511D660F771F881F991F0694A1F70590E9
:10087000079428F4E70EF81E491F561FC11D770F75
:10088000881F991F661F0694A1F70590079428F406
:10089000F80E491F561FC71FD11D880F991F661FCD
:1008A000771F0694A1F70590079420F4490F561F6F
:1008B000C71FD81F990F661F771F881F0694A9F7B7
:1008C00084911095177041F0D695C7955795479527
:1008D000F794E7941A95C1F7E8E6F0E0689415906C
:1008E000159135916591959105907FE27395E11889
:1008F000F10A430B560BC90BD009C0F7E10CF11EEE
:10090000431F561FC91FD01D7EF4703311F48A9502
:10091000E6CFE894015030F0080F0AF400270217E0
:1009200008F4202F2395022F7A3328F079E37D9362
:100930002A95E9F710C07D932A9589F60694979534
:100940006795379517951794E118F10A430B560BE5
:10095000C90BD00998F023957E9173957A3308F0EE
:1009600070E37C932013B8F77E9170617D9330F033
:10097000839571E37D9370E32A95E1F71124EF905D
:10098000FF900F911F91CF91DF91992787FD90954F
:060990000895F894FFCF6A
:100996004D6561737572656D656E742031202D200D
:1009A60031303030303075733A004D656173757291
:1009B600656D656E742032202D2035303075733AA2
:1009C600004D6561737572656D656E742033202DFB
:0809D60020383075733A00006F
:00000001FF
