:100000000C94B5000C94D2000C94D2000C943201E4
:100010000C94D2000C94D2000C94D2000C94D20018
:100020000C94D2000C94D2000C94D2000C94D20008
:100030000C94D2000C94D2000C94D4000C94D200F6
:100040000C94D2000C94D2000C94D2000C94D200E8
:100050000C94D2000C94D2000C94D2000C94D200D8
:100060000C94D2000C94D2006E616E00696E660032
:1000700000407A10F35A00A0724E18090010A5D45F
:10008000E80000E87648170000E40B54020000CABC
:100090009A3B000000E1F505000080969800000002
:1000A00040420F000000A086010000001027000061
:1000B0000000E803000000006400000000000A00E7
:1000C000000000000100000000002C76D888DC67EA
:1000D0004F0823DFC1DFAE59E1B1B796E5E3E45342
:1000E000C63AE651997696E8E6C28426EB898C9B5F
:1000F00062ED407C6FFCEFBC9C9F40F2BAA56FA5FF
:10010000F490055A2AF75C936B6CF9676DC11BFC80
:10011000E0E40D47FEF520E6B500D0ED902E03009B
:10012000943577050080841E080000204E0A0000E8
:1001300000C80C333333330F986E12831141EF8DA7
:100140002114893BE65516CFFEE6DB18D1844B38E7
:100150001BF77C1D901DA4BBE424203284725E2218
:100160008100C9F124ECA1E53D2711241FBECFEF8A
:10017000D8E0DEBFCDBF11E0A0E0B1E0E6EDF6E1F2
:1001800002C005900D92A230B107D9F721E0A2E09C
:10019000B1E001C01D92AF30B207E1F70E946C01DF
:1001A0000C94690B0C9400001F920F920FB60F92E3
:1001B0001124CF92DF92EF92FF922F933F934F93B0
:1001C0005F936F937F938F939F93AF93BF93EF93BF
:1001D000FF93809108019091090101969093090184
:1001E00080930801809106019091070101969093F8
:1001F0000701809306016091060170910701C0908C
:100200000201D0900301E0900401F090050180E02C
:1002100090E00E946003A70196010E9412048823C7
:1002200064F080910001813041F498B182E0892727
:1002300088B91092070110920601FF91EF91BF91CA
:10024000AF919F918F917F916F915F914F913F916E
:100250002F91FF90EF90DF90CF900F900FBE0F90F7
:100260001F9018951F920F920FB60F9211248F9323
:100270009F93AF93BF93189B0CC080910A0181118B
:100280001CC081E080930A011092850010928400C6
:1002900014C080910A01813081F410920A0180918A
:1002A000840090918500A0E0B0E080930B019093D2
:1002B0000C01A0930D01B0930E01BF91AF919F91DE
:1002C0008F910F900FBE0F901F901895E1E8F0E00E
:1002D0008081826080830895CF93DF93CDB7DEB7AE
:1002E00060970FB6F894DEBF0FBECDBF90E080E8F8
:1002F0000FB6F89480936100909361000FBE0E9446
:100300004A020E94660184B5826084BD85B584601E
:1003100085BDEEE6F0E08081826080838FE187BD5D
:10032000E8E6F0E0808181608083EBE6F0E08081A8
:1003300081608083219A15B8399A419A78940F2E5A
:10034000F4E8EF2EF12CF02DF894109209011092A0
:100350000801F70111821082299A06C0F7018081F5
:1003600091810B9708F4299885B18230B8F7789479
:1003700080910801909109014597D0F360910B019C
:1003800070910C0180910D0190910E010E9460030B
:1003900020E030E048E652E40E94EE028E010F5F5A
:1003A0001F4F21E045E00E943708C8010E94630208
:1003B00060910B0170910C0180910D0190910E01E3
:1003C0000E9460032AE53DE749EA5BEB0E941704BF
:1003D00020E030E048EF51E40E947D029B01AC0137
:1003E00060E070E08AE794E40E94EE02609302010C
:1003F00070930301809304019093050160910201C1
:1004000070910301809104019091050120E030E09A
:1004100040E252E40E94E9021816A4F06091020141
:1004200070910301809104019091050120E030E07A
:1004300044E052E40E941204181624F410920001C1
:10044000419A82CF60910201709103018091040171
:100450009091050120E030E048E454E40E94120449
:10046000882384F46091020170910301809104015A
:100470009091050120E030E040E252E40E94E90260
:10048000181624F01092000141985ECF81E080930D
:1004900000015ACF1092C50083E38093C400E0ECC2
:1004A000F0E080818D7F808388E18093C10086E0C9
:1004B0008093C2000895E0ECF0E0908195FFFDCFBD
:1004C0008093C60008950F931F93CF938C01FC0176
:1004D0008081882351F0C0E00E945B02CF5FF80169
:1004E000EC0FF11D80818111F7CF8AE00E945B0241
:1004F000CF911F910F9108955058BB27AA270E94B2
:1005000094020C94D8030E94CA0338F00E94D103CD
:1005100020F039F49F3F19F426F40C94C7030EF42D
:10052000E095E7FB0C94C103E92F0E94E90358F31F
:10053000BA17620773078407950720F079F4A6F5C8
:100540000C940B040EF4E0950B2EBA2FA02D0B018A
:10055000B90190010C01CA01A0011124FF27591B08
:1005600099F0593F50F4503E68F11A16F040A22F0E
:10057000232F342F4427585FF3CF4695379527957F
:10058000A795F0405395C9F77EF41F16BA0B620B7E
:10059000730B840BBAF09150A1F0FF0FBB1F661FC5
:1005A000771F881FC2F70EC0BA0F621F731F841F08
:1005B00048F4879577956795B795F7959E3F08F02E
:1005C000B0CF9395880F08F09927EE0F97958795F0
:1005D00008950E949D0308F481E008950E9402039B
:1005E0000C94D8030E94D10358F00E94CA0340F033
:1005F00029F45F3F29F00C94C10351110C940C04B1
:100600000C94C7030E94E90368F39923B1F35523BF
:1006100091F3951B550BBB27AA2762177307840715
:1006200038F09F5F5F4F220F331F441FAA1FA9F3AB
:1006300035D00E2E3AF0E0E832D091505040E69599
:10064000001CCAF72BD0FE2F29D0660F771F881FFA
:10065000BB1F261737074807AB07B0E809F0BB0BED
:10066000802DBF01FF2793585F4F3AF09E3F510501
:1006700078F00C94C1030C940C045F3FE4F3983EB3
:10068000D4F3869577956795B795F7959F5FC9F7EA
:10069000880F911D9695879597F90895E1E0660F6B
:1006A000771F881FBB1F621773078407BA0720F0E4
:1006B000621B730B840BBA0BEE1F88F7E09508954D
:1006C000E89409C097FB3EF49095809570956195EC
:1006D0007F4F8F4F9F4F9923A9F0F92F96E9BB27A2
:1006E0009395F695879577956795B795F111F8CF1E
:1006F000FAF4BB0F11F460FF1BC06F5F7F4F8F4F89
:100700009F4F16C0882311F096E911C0772321F07E
:100710009EE8872F762F05C0662371F096E8862F16
:1007200070E060E02AF09A95660F771F881FDAF76D
:10073000880F9695879597F90895990F0008550F9A
:10074000AA0BE0E8FEEF16161706E807F907C0F057
:1007500012161306E407F50798F0621B730B840B5F
:10076000950B39F40A2661F0232B242B252B21F439
:1007700008950A2609F4A140A6958FEF811D811DD9
:10078000089597F99F6780E870E060E008959FEF13
:1007900080EC089500240A94161617061806090618
:1007A000089500240A9412161306140605060895E7
:1007B000092E0394000C11F4882352F0BB0F40F46F
:1007C000BF2B11F460FF04C06F5F7F4F8F4F9F4FAF
:1007D000089557FD9058440F551F59F05F3F71F031
:1007E0004795880F97FB991F61F09F3F79F0879598
:1007F0000895121613061406551FF2CF4695F1DF21
:1008000008C0161617061806991FF1CF86957105B0
:10081000610508940895E894BB2766277727CB01E4
:1008200097F908950E949D0308F48FEF08950E94A0
:100830002A040C94D8030E94CA0338F00E94D10302
:1008400020F0952311F00C94C1030C94C7031124DC
:100850000C940C040E94E90370F3959FC1F3950F6B
:1008600050E0551F629FF001729FBB27F00DB11D34
:10087000639FAA27F00DB11DAA1F649F6627B00DC4
:10088000A11D661F829F2227B00DA11D621F739FAD
:10089000B00DA11D621F839FA00D611D221F749FBB
:1008A0003327A00D611D231F849F600D211D822F02
:1008B000762F6A2F11249F5750409AF0F1F0882329
:1008C0004AF0EE0FFF1FBB1F661F771F881F915056
:1008D0005040A9F79E3F510580F00C94C1030C9441
:1008E0000C045F3FE4F3983ED4F3869577956795C3
:1008F000B795F795E7959F5FC1F7FE2B880F911D80
:100900009695879597F90895A3E1B0E0EAE8F4E0B9
:100910000C9400086C014B012A01FC01178216821D
:10092000838181FF43C3AE014F5F5F4F3A01F60100
:100930009381F40193FD859193FF81914F01882369
:1009400009F430C3853239F493FD859193FF819189
:100950004F01853239F4B60190E00E9445095201F9
:100960002501E5CF10E0F12C20E02032A0F48B32FD
:1009700069F030F4803259F0833269F420612CC080
:100980008D3239F0803339F4216026C02260246032
:1009900023C0286021C027FD27C030ED380F3A3032
:1009A00078F426FF06C0FAE01F9F300D1124132FA4
:1009B00013C04AE0F49E300D1124F32E20620CC0C7
:1009C0008E3221F426FDEEC2206406C08C3611F46E
:1009D000206802C0883641F4F40193FD859193FFAD
:1009E00081914F018111C1CF9BEB980F933018F487
:1009F0002061805E06C09BE9980F933008F071C1BA
:100A00002F7E26FF16E02F73322E853619F42064D0
:100A1000322E08C0863621F4F22FF0683F2E02C035
:100A20001111115037FE07C01C3350F4EE24E3942B
:100A3000E10E27E00BC0183038F027E017E005C0C2
:100A400027E04CE3E42E02C0212FE12C520144E0C8
:100A5000A40EB11CF20160817181828193810E2DFF
:100A6000A3010E9457082C01098100FF02C003FF67
:100A700007C031FC08C032FE09C030E2232E07C097
:100A80002DE2222E04C09BE2292E01C0212C802FB2
:100A90008C7019F0211068C2A8C237FE0FC0E40C98
:100AA00004FF04C08A81813309F4EA941E1474F5AA
:100AB000F8E0FE1578F588E0E82E2CC036FC2AC058
:100AC000812F90E0841595059CF02CEF42162FEFB6
:100AD000520674F0432D4068342E0AC0E2E0F0E084
:100AE000EC0FFD1FE10FF11D8081803319F41150CF
:100AF0001111F4CF37FE0EC0EE24E394E10E812FE6
:100B000090E0481659062CF4141904C0EE24E3941E
:100B100001C010E037FE06C01414150434F4C201FD
:100B2000019605C085E090E002C081E090E02110D0
:100B30000196112331F0212F30E02F5F3F4F820FBC
:100B4000931F2F2D30E08217930714F4F81A01C079
:100B5000F12C832D897049F4FF2039F0B60180E231
:100B600090E00E944509FA94F7CF222029F0B601BF
:100B7000822D90E00E94450933FC09C0FF2039F026
:100B8000B60180E390E00E944509FA94F7CF37FE62
:100B90005AC0942D852D57FE02C090E080E0292E8A
:100BA000382E20E030E0A2014E1951095D874C87B4
:100BB000A201421953095F874E87612F70E04427D5
:100BC0005527461B570B598B488B5FEF251635066B
:100BD00049F4B6018EE290E02A8B3B8B0E944509D6
:100BE0003B892A89421453046CF04C855D8542157B
:100BF000530544F4EE85FF85E20FF31FE60DF71D64
:100C0000818101C080E351E0251A31082F5F3F4FF9
:100C100048895989241635064CF0B60190E02A8B94
:100C20003B8B0E9445092A893B89CFCF2414350488
:100C300039F49A81963318F4953311F404FF81E363
:100C4000B60190E04BC08A81813309F00F7EB60176
:100C500090E00E944509111105C034FC18C085E6DA
:100C600090E017C0B6018EE290E00E94450982E054
:100C7000EE24E394E80EF301E80FF11D8081B60144
:100C800090E00E94450911508E2D91F7E6CF85E442
:100C900090E0B6010E94450957FC05C0411451047B
:100CA00039F404FF05C05194419451088DE201C00C
:100CB0008BE2B60190E00E94450980E39AE0491674
:100CC00051042CF08F5F5AE0451A5108F7CFB60156
:100CD00090E00E944509B601C201C0960E944509F4
:100CE00057C1833631F0833779F0833509F058C026
:100CF00021C05201E2E0AE0EB11CF2018081898375
:100D000001E010E0230114C05201F2E0AF0EB11C6B
:100D1000F2014080518026FF03C0612F70E002C0C5
:100D20006FEF7FEFC2012A8B0E943A098C012A895A
:100D30002F7715C05201F2E0AF0EB11CF2014080D6
:100D4000518026FF03C0612F70E002C06FEF7FEF7C
:100D5000C2012A8B0E942F098C012A892068322E19
:100D600023FD1AC08F2D90E008171907A8F4B601CB
:100D700080E290E00E944509FA94F4CFF20137FC3A
:100D8000859137FE81912F01B60190E00E944509BF
:100D9000F110FA94015011090115110579F7F8C005
:100DA000843611F0893659F5520127FF09C0F4E065
:100DB000AF0EB11CF20160817181828193810AC002
:100DC000F2E0AF0EB11CF20160817181072E000CC0
:100DD000880B990B2F76322E97FF09C0909580953E
:100DE000709561957F4F8F4F9F4F2068322E2AE07C
:100DF00030E0A3010E947D09E82EE6183FC0022FD3
:100E0000853721F40F7E2AE030E01DC0097F8F3640
:100E100091F018F4883559F0C5C0803719F088373B
:100E200011F0C0C0006104FF09C0046007C024FFC6
:100E300008C0066006C028E030E005C020E130E0D0
:100E400002C020E132E0520107FF09C0F4E0AF0E1A
:100E5000B11CF201608171818281938108C0F2E04E
:100E6000AF0EB11CF2016081718180E090E0A301BE
:100E70000E947D09E82EE6180F77302E36FE0BC053
:100E8000332D3E7FE11650F434FE0AC032FC08C018
:100E9000332D3E7E05C00E2D332D03C00E2D01C017
:100EA000012F34FF0CC0FE01EE0DF11D8081803357
:100EB00011F4397E08C032FF05C00E5F04C0832FD5
:100EC000867809F00F5F33FD13C030FF06C01E2D7A
:100ED0000F1518F41F0D101B0F2D0F1568F4B60118
:100EE00080E290E03B8B0E9445090F5F3B89F5CF84
:100EF0000F1510F4F01A01C0F12C34FF12C0B60126
:100F000080E390E03B8B0E9445093B8932FF17C08C
:100F100031FD03C088E790E002C088E590E0B601AB
:100F20000CC0832F867859F031FF02C08BE201C0DC
:100F300080E237FD8DE2B60190E00E944509E1169E
:100F400038F4B60180E390E00E9445091150F7CFD4
:100F5000EA94F301EE0DF11D8081B60190E00E944C
:100F60004509E110F5CF14C0F4E0FF1558F584E011
:100F7000F81A33FE1EC0211026C003FF2AC008E65F
:100F800010E0F32DF0713F2EF8018491811124C0FF
:100F9000FF2009F4E5CCB60180E290E00E9445090B
:100FA000FA94F6CFF6018681978126C08FEF9FEFE6
:100FB00023C0B60180E290E00E944509FA94F11046
:100FC000F8CFD9CFF12CB601822D90E00E944509CF
:100FD000D4CF0CE610E0D5CF31108052B60190E0AE
:100FE0000E9445090F5F1F4FCFCF23E02F1510F44C
:100FF00083E0BECFF12CC1CF6396E2E10C941C08D4
:101000002F923F924F925F926F927F928F929F9218
:10101000AF92BF92CF92DF92EF92FF920F931F9306
:10102000CF93DF93CDB7DEB7CA1BDB0B0FB6F894B7
:10103000DEBF0FBECDBF09942A88398848885F84F7
:101040006E847D848C849B84AA84B984C884DF8068
:10105000EE80FD800C811B81AA81B981CE0FD11D4C
:101060000FB6F894DEBF0FBECDBFED010895EF922D
:101070000F931F93CF93DF93E80147FD02C034E045
:1010800001C034E1E42F440FFF0BF7FF03C0F195DB
:10109000E195F109E32E022F2E2FAE010E94DB090C
:1010A000CE01DF91CF911F910F91EF9008952830DD
:1010B00008F027E03327DA01990F311D87FD916091
:1010C00000966105710539F432602E5F3D9330E37F
:1010D0002A95E1F708959F3F30F08038710561054A
:1010E00009F03C5F3C5F3D93913008F08068911DB2
:1010F000DF93CF931F930F93FF92EF92192F987F57
:101100009695E92F96959695E90FFF27E653FF4FA1
:1011100099273327EE24FF24A701E70105900894BF
:10112000079428F4360FE71EF81E491F511D660F5D
:10113000771F881F991F0694A1F70590079428F43C
:10114000E70EF81E491F561FC11D770F881F991FF4
:10115000661F0694A1F70590079428F4F80E491F1E
:10116000561FC71FD11D880F991F661F771F069432
:10117000A1F70590079420F4490F561FC71FD81FE9
:10118000990F661F771F881F0694A9F78491109501
:10119000177041F0D695C79557954795F794E79402
:1011A0001A95C1F7E0E7F0E0689415901591359134
:1011B0006591959105907FE27395E118F10A430BD3
:1011C000560BC90BD009C0F7E10CF11E431F561F87
:1011D000C91FD01D7EF4703311F48A95E6CFE894D0
:1011E000015030F0080F0AF40027021708F4202FEE
:1011F0002395022F7A3328F079E37D932A95E9F736
:1012000010C07D932A9589F6069497956795379532
:1012100017951794E118F10A430B560BC90BD00927
:1012200098F023957E9173957A3308F070E37C9360
:101230002013B8F77E9170617D9330F0839571E350
:101240007D9370E32A95E1F71124EF90FF900F91C1
:101250001F91CF91DF91992787FD90950895FC010B
:101260000590615070400110D8F7809590958E0FD1
:101270009F1F0895FC016150704001900110D8F744
:10128000809590958E0F9F1F08950F931F93CF9376
:10129000DF93FB01238121FD03C08FEF9FEF28C067
:1012A00022FF16C04681578124813581421753079A
:1012B00044F4A081B1819D012F5F3F4F3183208392
:1012C0008C93268137812F5F3F4F3783268310C051
:1012D000EB01092F182F0084F185E02D0995892B4A
:1012E000E1F68E819F8101969F838E83812F902FBF
:1012F000DF91CF911F910F910895FA01AA2728300D
:1013000051F1203181F1E8946F936E7F6E5F7F4FD2
:101310008F4F9F4FAF4FB1E03ED0B4E03CD0670F4E
:10132000781F891F9A1FA11D680F791F8A1F911DA1
:10133000A11D6A0F711D811D911DA11D20D009F4F1
:1013400068943F912AE0269F11243019305D319333
:10135000DEF6CF010895462F4770405D4193B3E01C
:101360000FD0C9F7F6CF462F4F70405D4A3318F0C3
:10137000495D31FD4052419302D0A9F7EACFB4E074
:10138000A6959795879577956795BA95C9F700972C
:101390006105710508959B01AC010A2E06945795CD
:1013A000479537952795BA95C9F7620F731F841F24
:1013B000951FA01D08954F925F926F927F929F920A
:1013C000AF92BF92CF92DF92EF92FF920F931F9353
:1013D000CF93DF93CDB7DEB729970FB6F894DEBF72
:1013E0000FBECDBF6A01122FB02E2BE3201720F0C5
:1013F000FF24F394F00E02C0BCE3FB2E0F2D27E078
:10140000AE014F5F5F4F0E945708AC018981982F52
:101410009970913031F0E1FC06C0E0FE06C090E228
:1014200005C09DE203C09BE201C090E0EE2DE0719B
:1014300083FF3CC0911102C083E001C084E08117AA
:1014400018F4212F281B01C020E0E1110BC0F60188
:10145000822F30E2882319F031938150FBCFC20EE6
:10146000D11C20E0992329F0D6019C93F6013196F6
:101470006F01C6010396E2FE0AC03EE4D6013C932A
:1014800041E411964C93119712963C9306C03EE6A8
:10149000F601308341E641833283FC01322F40E282
:1014A000332309F442C041933150FACF82FF44C044
:1014B000911102C083E001C084E0811718F4212F4C
:1014C000281B01C020E0E1110BC0F601822F30E2A1
:1014D000882319F031938150FBCFC20ED11C20E03C
:1014E000992329F0D6019C93F60131966F01C6012C
:1014F0000396E2FE0BC039E4D6013C933EE411961C
:101500003C93119736E412963C9307C039E6F601F6
:1015100030833EE6318336E63283FC01322F40E2EF
:10152000332319F041933150FBCFFC01E20FF11D41
:1015300010828EEF9FEFB7C0F1E0911101C0F0E093
:101540006F2F70E01416150624F49A012F5F3F4F99
:1015500002C021E030E0260F371FBB2029F06B2DA1
:1015600070E06F5F7F4F02C060E070E0260F371FB2
:10157000612F70E0261737071CF4121B212F01C0C2
:1015800020E03E2D387159F4D601322F60E233232A
:1015900019F06D933150FBCFC20ED11C20E0FF2318
:1015A00031F0D6019C93B6016F5F7F4F6B01E11163
:1015B0000BC0F601922F30E3992319F0319391502B
:1015C000FBCFC20ED11C20E09F2D940F3A81782FC3
:1015D0007071A72E84FF03C0313309F4915019169E
:1015E00024F4993018F098E001C091E0E42F852FA1
:1015F00057FF02C0E0E080E06E2F782FE0E0F0E0DF
:10160000AEE29A2E3A01691A71082A01461A570A5F
:101610000B2D10E01195019511096F3F8FEF7807A1
:1016200029F4D6019C92C60101966C014617570712
:1016300084F0661677066CF47F01E40CF51CA1E0DB
:10164000B0E0AC0FBD1FEA0EFB1ED7011196BC9097
:1016500002C090E3B92E615071093196C60101961E
:101660007C016017710724F0D601BC926C01D5CFC4
:101670006417750741F4363320F4353321F4A11093
:1016800002C081E3B82EF601B082F701822F90E20A
:10169000882319F091938150FBCFF701E20FF11DE0
:1016A000108280E090E029960FB6F894DEBF0FBE5E
:1016B000CDBFDF91CF911F910F91FF90EF90DF9001
:1016C000CF90BF90AF909F907F906F905F904F9022
:0616D0000895F894FFCF1D
:0216D600010011
:00000001FF
