S01F0000414B5F415652324D5055363035305F617474656D7074312E73726563B3
S11300000C9434000C9446000C9446000C94460066
S11300100C9446000C9446000C9446000C94460044
S11300200C9446000C9446000C9446000C94460034
S11300300C9446000C9446000C9474000C944600F6
S11300400C9446000C9446000C9446000C94460014
S11300500C9446000C9446000C9446000C94460004
S11300600C9446000C94460011241FBECFEFD8E038
S1130070DEBFCDBF21E0A0E0B1E001C01D92A13000
S1130080B207E1F70E9448000C9496000C9400001B
S113009090E080E80FB6F89480936100909361003B
S11300A00FBE0E94850085B5856085BD84B58260DC
S11300B084BD8BEE87BDEEE6F0E0808182608083B4
S11300C03C9A449A789490E180910001813128F01F
S11300D01092000188B1892788B9EFE3FCE93197D0
S11300E0F1F700C00000F0CF1F920F920FB60F92ED
S11300F011248F93809100018F5F809300018F9171
S11301000F900FBE0F901F9018951092C50083E3B7
S11301108093C400E0ECF0E080818D7F808388E1EF
S11301208093C10086E08093C2000895F894FFCFC5
S9030000FC
