S0170000414B5F54696D657253747566665F312E7372656389
S11300000C9434000C9446000C9446000C94460066
S11300100C9446000C9446000C9446000C94460044
S11300200C9446000C9446000C9446000C94460034
S11300300C9446000C9446000C942D010C9446003C
S11300400C9446000C9446000C9446000C94460014
S11300500C9446000C9446000C9446000C94460004
S11300600C9446000C94460011241FBECFEFD8E038
S1130070DEBFCDBF21E0A0E0B1E001C01D92A13000
S1130080B207E1F70E94E4000C94A2010C94000072
S1130090ECE7F0E0908190649083683019F06A3066
S11300A039F00CC0ECE7F0E09081906290830BC0D3
S11300B0ECE7F0E090819F7D908305C0ECE7F0E0F1
S11300C090819F7D9083ECE7F0E09081907F908316
S11300D08330B9F028F4813041F0823061F022C0DD
S11300E08430A9F08530C9F01DC0ECE7F0E08081D0
S11300F08160808317C0ECE7F0E0808182608083B8
S113010011C0ECE7F0E08081836080830BC0ECE7F2
S1130110F0E080818460808305C0ECE7F0E08081BA
S113012085608083EAE7F0E08081806880834031E5
S113013009F138F4443091F04830B1F0423091F58F
S113014007C0403419F1403839F1403259F518C02C
S1130150EAE7F0E08081816080830895EAE7F0E0D7
S11301608081826080830895EAE7F0E08081836083
S113017080830895EAE7F0E08081846080830895B5
S1130180EAE7F0E08081856080830895EAE7F0E0A3
S11301908081866080830895EAE7F0E0808187604B
S11301A080830895EAE7F0E0808183608083089586
S11301B0EAE7F0E0808180648083808186FDFDCF62
S11301C00895809179000895CF93DF93CDB7DEB77A
S11301D060970FB6F894DEBF0FBECDBF90E080E805
S11301E00FB6F89480936100909361000FBE0E9453
S11301F03E0140E468E080E00E94480085B58560E7
S113020085BD84B5826084BD84EF87BDEEE6F0E0F1
S11302108081826080833C9A449A78940E94D800BA
S11302200E94E1004AE0BE016F5F7F4F90E00E94B0
S11302306D01CE0101960E9457018AE00E944F0190
S113024080910001883010F0109200018FE39CE946
S11302500197F1F700C00000E1CF1F920F920FB693
S11302600F9211248F93809100018F5F809300017E
S11302708F910F900FBE0F901F9018951092C5008C
S113028083E38093C400E0ECF0E080818D7F808381
S113029088E18093C10086E08093C2000895E0EC79
S11302A0F0E0908195FFFDCF8093C60008950F93F1
S11302B01F93CF93FC018081882359F08F01C0E004
S11302C00E944F01CF5FF801EC0FF11D8081811175
S11302D0F7CFCF911F910F910895BB274A3031F486
S11302E0992322F4BDE2909581959F4F0C94790156
S11302F0BB27FB015527AA27880F991FAA1FA417FC
S113030010F0A41B83955051B9F7A05DAA3308F0EF
S1130310A95DA193009779F7B111B1931192CB0123
S11303200C949201DC01FC01672F71917723E1F7B2
S1130330329704C07C916D9370836291AE17BF07AE
S10B0340C8F30895F894FFCFFF
S9030000FC
