:100000000C9434000C943E000C943E000C943E0082
:100010000C943E000C943E000C943E000C943E0068
:100020000C943E000C943E000C943E000C943E0058
:100030000C943E000C943E000C943E000C943E0048
:100040000C943E000C943E000C943E000C943E0038
:100050000C943E000C943E000C943E000C943E0028
:100060000C943E000C943E0011241FBECFEFD8E04C
:10007000DEBFCDBF0E9440000C9458000C940000DD
:1000800090E080E80FB6F89480936100909361004F
:100090000FBE259A90E285B1892785B92FEF34E309
:1000A0008CE0215030408040E1F700C00000F3CFE9
:0400B000F894FFCFF2
:00000001FF
