S0150000414B5F4D50555F746573745F312E7372656383
S11300000C9434000C9449000C9449000C9449005D
S11300100C9449000C9449000C9449000C94490038
S11300200C9449000C9449000C9449000C94490028
S11300300C9449000C9449000C9449000C94490018
S11300400C9449000C9449000C9449000C94490008
S11300500C9449000C9449000C9449000C944900F8
S11300600C9449000C94490011241FBECFEFD8E032
S1130070DEBFCDBF11E0A0E0B1E0E0E4F8E002C0F3
S113008005900D92A233B107D9F70E941A030C947C
S11300901E040C940000CF93DF931F92CDB7DEB7FC
S11300A0198221E030E0AE014F5F5F4F65E780EDDC
S11300B00E94D10281E09981983609F080E00F9086
S11300C0DF91CF9108950F931F93CF93DF93CDB713
S11300D0DEB72E970FB6F894DEBF0FBECDBF8C01EE
S11300E02EE030E0AE014F5F5F4F6BE380ED0E9486
S11300F0D102898190E0982F88272A81822BF801E8
S1130100918380838B8190E0982F88272C81822B88
S1130110938382838D8190E0982F88272E81822B70
S113012095838483898590E0982F88272A85822B5C
S1130130978386832B8530E0322F22278C85282BCA
S1130140318720872D8530E0322F22278E85282B7A
S1130150338722872E960FB6F894DEBF0FBECDBF2D
S1130160DF91CF911F910F910895CF93DF9300D02A
S1130170CDB7DEB78823C1F0813061F521E030E0EE
S1130180AE014F5F5F4F6BE680ED0E94D102898123
S113019080648A8321E030E0AE014E5F5F4F6BE6FE
S11301A080ED0E949F022BC021E030E0AE014F5F42
S11301B05F4F6BE680ED0E94D10289818F7B8A8339
S11301C021E030E0AE014E5F5F4F6BE680ED0E94B0
S11301D09F0215C021E030E0AE014F5F5F4F6BE638
S11301E080ED0E94D102898180648A8321E030E01D
S11301F0AE014E5F5F4F6BE680ED0E949F020F9051
S11302000F90DF91CF910895813079F028F08230FA
S1130210A9F08330E1F024C021E030E040E050E078
S11302206BE180ED0E949F02089521E030E048E0F8
S113023050E06BE180ED0E949F02089521E030E0E0
S113024040E150E06BE180ED0E949F02089521E0BF
S113025030E048E150E06BE180ED0E949F02089598
S113026021E030E040E050E06BE180ED0E949F022D
S11302700895CF93DF9300D0CDB7DEB78130E9F096
S113028030F0823089F1833009F445C05AC021E04E
S113029030E0AE014F5F5F4F6CE180ED0E94D10210
S11302A08981877E8A8321E030E0AE014E5F5F4F13
S11302B06CE180ED0E949F0259C021E030E0AE0164
S11302C04F5F5F4F6CE180ED0E94D1028981877E90
S11302D088608A8321E030E0AE014E5F5F4F6CE1BD
S11302E080ED0E949F0242C021E030E0AE014F5FEA
S11302F05F4F6CE180ED0E94D1028981877E80612D
S11303008A8321E030E0AE014E5F5F4F6CE180ED07
S11303100E949F022BC021E030E0AE014F5F5F4F8F
S11303206CE180ED0E94D102898188618A8321E099
S113033030E0AE014E5F5F4F6CE180ED0E949F02A2
S113034015C021E030E0AE014F5F5F4F6CE180EDFE
S11303500E94D1028981877E8A8321E030E0AE0148
S11303604E5F5F4F6CE180ED0E949F020F900F90F3
S1130370DF91CF910895CF93DF9300D0CDB7DEB74F
S11303808130E9F030F0823089F1833009F445C0DE
S11303905BC021E030E0AE014F5F5F4F6BE680ED64
S11303A00E94D1028981887F8A8321E030E0AE01F6
S11303B04E5F5F4F6BE680ED0E949F025BC021E0C1
S11303C030E0AE014F5F5F4F6BE680ED0E94D102DB
S11303D08981887F81608A8321E030E0AE014E5FAD
S11303E05F4F6BE680ED0E949F0244C021E030E045
S11303F0AE014F5F5F4F6BE680ED0E94D1028981B1
S1130400887F82608A8321E030E0AE014E5F5F4FD7
S11304106BE680ED0E949F022DC021E030E0AE012A
S11304204F5F5F4F6BE680ED0E94D1028981887F28
S113043083608A8321E030E0AE014E5F5F4F6BE65C
S113044080ED0E949F0216C021E030E0AE014F5FB4
S11304505F4F6BE680ED0E94D1028981887F8160C5
S11304608A8321E030E0AE014E5F5F4F6BE680EDA2
S11304700E949F020F900F90DF91CF9108950E94E8
S11304804E0281E00E94BB0180E00E94B50080E042
S11304900E94040180E00E943901089588E4809359
S11304A0B8000895ECEBF0E0108294EA9083908118
S11304B09923ECF79091B900987F9830A1F4809338
S11304C0BB0084E88093BC00ECEBF0E080818823DF
S11304D0ECF79091B900987F983139F081E090342D
S11304E029F480E0089581E0089580E008958093E0
S11304F0BB0084E88093BC00ECEBF0E080818823AF
S1130500ECF79091B900987F81E0983209F480E08B
S1130510089584EC8093BC00ECEBF0E080818823A8
S1130520ECF78091BB00089584E88093BC00ECEB69
S1130530F0E080818823ECF78091BB000895CF928E
S1130540DF92FF920F931F93CF93DF93C62F6A011D
S113055089010E945202F82E811115C08C2F0E942D
S113056077020115110559F0E6010C0D1D1D899145
S11305700E94770281110AC0C017D107C1F784E92C
S11305808093BC0005C0FF24F39402C0FF24F394BD
S11305908F2DDF91CF911F910F91FF90DF90CF901E
S11305A00895AF92BF92DF92EF92FF920F931F9341
S11305B0CF93DF93182F062F5A01E9010E945202AC
S11305C0811122C0802F0E947702812F81600E94B6
S11305D05202D82E81111BC08E010150110951F015
S11305E0E5017501E00EF11E0E9489028993CE1582
S11305F0DF05D1F7E501C00FD11F0E949402888363
S113060084E98093BC0005C0DD24D39402C0DD24BA
S1130610D3948D2DDF91CF911F910F91FF90EF9087
S1130620DF90BF90AF900895882311F05B9A0895EE
S11306305B980895CF93DF93CDB7DEB7EC970FB6F1
S1130640F894DEBF0FBECDBF539A0E94A10390E081
S113065080E80FB6F89480936100909361000FBE18
S11306600E943F0281E00E9404010E944B00882303
S113067059F080E091E00E94D00381E00E941403CD
S113068010E001E0F12C20C081E00E9414038DE110
S113069091E00E94D00380E00E9414032FEF80E7D2
S11306A092E0215080409040E1F700C0000081E0DA
S11306B00E9414032FEF80E792E021508040904085
S11306C0E1F700C00000E7CFCE0101960E9463006D
S11306D04AE0BE01635F7F4F8F8198850E94E903E2
S11306E04AE0BE01635E7F4F89859A850E94E903D3
S11306F04AE0BE01635D7F4F8B859C850E94E903C0
S1130700CE010D960E94BA038FE291E00E94BA03D3
S1130710CE014D960E94BA038FE291E00E94BA0383
S1130720CE018D960E94D0038FE39CE90197F1F7E7
S113073000C00000802F11118F2D182F0E94140368
S1130740C3CF1092C50080E18093C400E0ECF0E0D8
S113075080818260808388E18093C10086E08093F9
S1130760C2000895E0ECF0E0908195FFFDCF809306
S1130770C60008950F931F93CF93FC0180818823B3
S113078059F08F01C0E00E94B203CF5FF801EC0F73
S1130790F11D80818111F7CFCF911F910F910895A1
S11307A00F931F93CF938C01FC018081882351F018
S11307B0C0E00E94B203CF5FF801EC0FF11D80810D
S11307C08111F7CF8AE00E94B203CF911F910F915C
S11307D00895BB274A3031F4992322F4BDE2909561
S11307E081959F4F0C94F503BB27FB015527AA273E
S11307F0880F991FAA1FA41710F0A41B83955051AA
S1130800B9F7A05DAA3308F0A95DA193009779F721
S1130810B111B1931192CB010C940E04DC01FC01D3
S1130820672F71917723E1F7329704C07C916D9320
S113083070836291AE17BF07C8F30895F894FFCF91
S11308403D3D3D20494D5520776F726B696E6720A1
S113085070726F7065726C79203D3D3D003D3D3D89
S113086020494D55204552524F52203D3D3D005F99
S1050870000082
S9030000FC
