S01900004543475F616363656C65726F6D657465722E7372656382
S11300000C943B000C9458000C9458000C94580029
S11300100C9458000C9458000C9458000C945800FC
S11300200C9458000C9458000C9458000C945800EC
S11300300C9458000C9458000C94E9030C94580048
S11300400C9458000C9458000C9458000C945800CC
S11300500C9458000C9458000C9458000C945800BC
S11300600C9458000C9458003E0254026B02820215
S11300709902B002C70211241FBECFEFD8E0DEBF41
S1130080CDBF11E0A0E0B1E0E2E4FAE002C00590E7
S11300900D92A433B107D9F721E0A4E3B1E001C084
S11300A01D92AC33B207E1F70E9456040C941F056D
S11300B00C940000CF93DF931F92CDB7DEB7198263
S11300C021E030E0AE014F5F5F4F65E780ED0E94B5
S11300D07B0381E09981983609F080E00F90DF91ED
S11300E0CF9108950F931F93CF93DF9300D000D047
S11300F000D0CDB7DEB78C0126E030E0AE014F5F13
S11301005F4F6BE380ED0E947B03898190E0982F21
S113011088272A81822BF801918380832B8130E008
S1130120322F22278C81282B338322832D8130E0A8
S1130130322F22278E81282B3583248326960FB6CF
S1130140F894DEBF0FBECDBFDF91CF911F910F9109
S11301500895CF93DF9300D0CDB7DEB78823C1F0E5
S1130160813061F521E030E0AE014F5F5F4F6BE617
S113017080ED0E947B03898180648A8321E030E0E2
S1130180AE014E5F5F4F6BE680ED0E9449032BC0CA
S113019021E030E0AE014F5F5F4F6BE680ED0E94DF
S11301A07B0389818F7B8A8321E030E0AE014E5F3F
S11301B05F4F6BE680ED0E94490315C021E030E0FB
S11301C0AE014F5F5F4F6BE680ED0E947B03898138
S11301D080648A8321E030E0AE014E5F5F4F6BE6BE
S11301E080ED0E9449030F900F90DF91CF91089505
S11301F0CF93DF931F92CDB7DEB7823049F08330BF
S113020051F0813011F0198208C088E0898305C05B
S113021080E1898302C088E1898321E030E0AE0176
S11302204F5F5F4F6BE180ED0E9449030F90DF91B8
S1130230CF910895CF93DF9300D0CDB7DEB781304F
S1130240E9F030F0823089F1833009F445C05AC0B6
S113025021E030E0AE014F5F5F4F6CE180ED0E9422
S11302607B038981877E8A8321E030E0AE014E5F83
S11302705F4F6CE180ED0E94490359C021E030E0FA
S1130280AE014F5F5F4F6CE180ED0E947B0389817B
S1130290877E88608A8321E030E0AE014E5F5F4F45
S11302A06CE180ED0E94490342C021E030E0AE01E0
S11302B04F5F5F4F6CE180ED0E947B038981877EF5
S11302C080618A8321E030E0AE014E5F5F4F6CE1D4
S11302D080ED0E9449032BC021E030E0AE014F5F66
S11302E05F4F6CE180ED0E947B03898188618A8382
S11302F021E030E0AE014E5F5F4F6CE180ED0E9483
S1130300490315C021E030E0AE014F5F5F4F6CE15F
S113031080ED0E947B038981877E8A8321E030E01F
S1130320AE014E5F5F4F6CE180ED0E9449030F9078
S11303300F90DF91CF910895CF93DF9300D0CDB785
S1130340DEB78130E9F030F0823089F1833009F48E
S113035045C05BC021E030E0AE014F5F5F4F6BE60C
S113036080ED0E947B038981887F8A8321E030E0CD
S1130370AE014E5F5F4F6BE680ED0E9449035BC0A8
S113038021E030E0AE014F5F5F4F6BE680ED0E94ED
S11303907B038981887F81608A8321E030E0AE011C
S11303A04E5F5F4F6BE680ED0E94490344C021E03D
S11303B030E0AE014F5F5F4F6BE680ED0E947B0340
S11303C08981887F82608A8321E030E0AE014E5FBC
S11303D05F4F6BE680ED0E9449032DC021E030E0C1
S11303E0AE014F5F5F4F6BE680ED0E947B03898116
S11303F0887F83608A8321E030E0AE014E5F5F4FE7
S11304006BE680ED0E94490316C021E030E0AE01A6
S11304104F5F5F4F6BE680ED0E947B038981887F8D
S113042081608A8321E030E0AE014E5F5F4F6BE66E
S113043080ED0E9449030F900F90DF91CF910895B2
S11304400E94F80281E00E949C0182E00E94F80070
S113045080E00E941A0180E00E94A9000895CF93D1
S1130460DF9300D0CDB7DEB790E08730910508F078
S1130470A5C0FC01EC5CFF4F0C94C20421E030E009
S1130480AE014F5F5F4F6AE180ED0E947B0389817B
S1130490887F8A8321E030E0AE014E5F5F4F6AE1DE
S11304A080ED0E9449039FC021E030E0AE014F5F20
S11304B05F4F6AE180ED0E947B038981887F8160C0
S11304C08A8321E030E0AE014E5F5F4F6AE180ED48
S11304D00E94490388C021E030E0AE014F5F5F4FC6
S11304E06AE180ED0E947B038981887F82608A8330
S11304F021E030E0AE014E5F5F4F6AE180ED0E9483
S1130500490371C021E030E0AE014F5F5F4F6AE103
S113051080ED0E947B038981887F83608A8321E048
S113052030E0AE014E5F5F4F6AE180ED0E94490307
S11305305AC021E030E0AE014F5F5F4F6AE180EDC9
S11305400E947B038981887F84608A8321E030E074
S1130550AE014E5F5F4F6AE180ED0E94490343C0E4
S113056021E030E0AE014F5F5F4F6AE180ED0E9411
S11305707B038981887F85608A8321E030E0AE0136
S11305804E5F5F4F6AE180ED0E9449032CC021E079
S113059030E0AE014F5F5F4F6AE180ED0E947B0364
S11305A08981887F86608A8321E030E0AE014E5FD6
S11305B05F4F6AE180ED0E94490315C021E030E0FD
S11305C0AE014F5F5F4F6AE180ED0E947B0389813A
S11305D0887F8A8321E030E0AE014E5F5F4F6AE19D
S11305E080ED0E9449030F900F90DF91CF91089501
S11305F088E48093B8000895ECEBF0E0108294EA6C
S1130600908390819923ECF79091B900987F98306A
S1130610A1F48093BB0084E88093BC00ECEBF0E091
S113062080818823ECF79091B900987F983139F054
S113063081E0903429F480E0089581E0089580E019
S113064008958093BB0084E88093BC00ECEBF0E059
S113065080818823ECF79091B900987F81E09832EB
S113066009F480E0089584EC8093BC00ECEBF0E0A6
S113067080818823ECF78091BB00089584E88093FF
S1130680BC00ECEBF0E080818823ECF78091BB00A8
S11306900895CF92DF92FF920F931F93CF93DF932E
S11306A0C62F6A0189010E94FC02F82E811115C02F
S11306B08C2F0E9421030115110559F0E6010C0D40
S11306C01D1D89910E94210381110AC0C017D10701
S11306D0C1F784E98093BC0005C0FF24F39402C0F1
S11306E0FF24F3948F2DDF91CF911F910F91FF90F1
S11306F0DF90CF900895AF92BF92DF92EF92FF9276
S11307000F931F93CF93DF93182F062F5A01E901FC
S11307100E94FC02811122C0802F0E942103812F9C
S113072081600E94FC02D82E81111BC08E010150F1
S1130730110951F0E5017501E00EF11E0E94330329
S11307408993CE15DF05D1F7E501C00FD11F0E94B3
S11307503E03888384E98093BC0005C0DD24D394E0
S113076002C0DD24D3948D2DDF91CF911F910F9181
S1130770FF90EF90DF90BF90AF90089584B58260B2
S113078084BD8AEF87BD85B5836085BDEEE6F0E064
S1130790808182608083789416BC089516BC109280
S11307A038011092390110923A0110923B011092D3
S11307B034011092350110923601109237010895D8
S11307C06091340170913501809136019091370127
S11307D008951F920F920FB60F9211248F939F9337
S11307E0AF93BF938091340190913501A09136016C
S11307F0B09137010196A11DB11D809334019093EE
S11308003501A0933601B0933701BF91AF919F9109
S11308108F910F900FBE0F901F9018951092C500E6
S113082087E68093C400E0ECF0E080818D7F8083D4
S113083088E18093C10086E08093C2000895E0ECD3
S1130840F0E0908195FFFDCF8093C60008950F934B
S11308501F93CF93FC018081882359F08F01C0E05E
S11308600E941F04CF5FF801EC0FF11D80818111FC
S1130870F7CFCF911F910F9108950F931F93CF93AB
S11308808C01FC018081882351F0C0E00E941F0488
S1130890CF5FF801EC0FF11D80818111F7CF8AE061
S11308A00E941F04CF911F910F910895CF93DF935E
S11308B0CDB7DEB7C655D1090FB6F894DEBF0FBE6B
S11308C0CDBF0E940E0490E080E80FB6F8948093A8
S11308D06100909361000FBE0E9420020E94BE033B
S11308E080E00E941A010E945A00882329F080E0C7
S11308F091E00E943D0414C08DE191E00E943D040A
S113090012E32FEF80E792E0215080409040E1F71E
S113091000C000008FE291E00E942704115089F783
S113092082E090E00E942F020E94CE030E94E00326
S11309306B017C01CE0101960E9472004AE0BE0167
S1130940695B7F4F89819A810E94C8042AE0AE01C5
S1130950495F5F4FC701B6010E94D304CE010796D9
S11309600E94270481E391E00E942704CE01895B61
S11309709F4F0E943D048FE99FE00197F1F700C06B
S11309800000D4CFEE0FFF1F0590F491E02D0994E1
S1130990BB274A3031F4992322F4BDE29095819526
S11309A09F4F0C94F604BB27FA01A62F621771051A
S11309B081059105330B30FB66F0AA27660F771F7C
S11309C0881F991FAA1FA21710F0A21B6395385005
S11309D0A9F7A05DAA3308F0A95DA19336F7B11178
S11309E0B1931082CA010C940F05BB27FB01552754
S11309F0AA27880F991FAA1FA41710F0A41B839578
S1130A005051B9F7A05DAA3308F0A95DA1930097EE
S1130A1079F7B111B1931192CB010C940F05DC015C
S1130A20FC01672F71917723E1F7329704C07C9121
S1130A306D9370836291AE17BF07C8F30895F8945D
S1050A40FFCFE2
S1130A423D3D3D20494D5520776F726B696E67209D
S1130A5270726F7065726C79203D3D3D003D3D3D85
S1130A6220494D55204552524F52203D3D3D002EC6
S1070A72005F00001D
S9030000FC
