:100000000C9434000C943E000C943E000C943E0082
:100010000C943E000C943E000C943E000C943E0068
:100020000C943E000C943E000C943E000C943E0058
:100030000C943E000C943E000C943E000C943E0048
:100040000C943E000C943E000C943E000C943E0038
:100050000C943E000C943E000C943E000C943E0028
:100060000C943E000C943E0011241FBECFEFD8E04C
:10007000DEBFCDBF0E940B010C946C010C940000FC
:10008000ECE7F0E0908190649083683019F06A307A
:1000900039F00CC0ECE7F0E09081906290830BC0E7
:1000A000ECE7F0E090819F7D908305C0ECE7F0E005
:1000B00090819F7D9083ECE7F0E09081907F90832A
:1000C0008330B9F028F4813041F0823061F022C0F1
:1000D0008430A9F08530C9F01DC0ECE7F0E08081E4
:1000E0008160808317C0ECE7F0E0808182608083CC
:1000F00011C0ECE7F0E08081836080830BC0ECE707
:10010000F0E080818460808305C0ECE7F0E08081CE
:1001100085608083EAE7F0E08081806880834031F9
:1001200009F138F4443091F04830B1F0423091F5A3
:1001300007C0403419F1403839F1403259F518C040
:10014000EAE7F0E08081816080830895EAE7F0E0EB
:100150008081826080830895EAE7F0E08081836097
:1001600080830895EAE7F0E08081846080830895C9
:10017000EAE7F0E08081856080830895EAE7F0E0B7
:100180008081866080830895EAE7F0E0808187605F
:1001900080830895EAE7F0E080818360808308959A
:1001A000EAE7F0E0808180648083808186FDFDCF76
:1001B00008958091790008951092C5008CE0809395
:1001C000C400E0ECF0E080818260808388E180936D
:1001D000C10086E08093C2000895E0ECF0E09081D9
:1001E00095FFFDCF8093C60008950F931F93CF9383
:1001F000FC018081882359F08F01C0E00E94ED004E
:10020000CF5FF801EC0FF11D80818111F7CFCF9105
:100210001F910F910895CF93DF93CDB7DEB760970D
:100220000FB6F894DEBF0FBECDBF0E94DC0048E0E1
:1002300068E085E00E9440003C9A449A0E94D00009
:100240000E94D9004AE0BE016F5F7F4F90E00E949C
:100250003701CE0101960E94F5008AE00E94ED0070
:1002600087E893E10197F1F700C00000E7CFBB27D3
:100270004A3031F4992322F4BDE2909581959F4F45
:100280000C944301BB27FB015527AA27880F991F10
:10029000AA1FA41710F0A41B83955051B9F7A05DB5
:1002A000AA3308F0A95DA193009779F7B111B19332
:1002B0001192CB010C945C01DC01FC01672F719160
:1002C0007723E1F7329704C07C916D93708362913C
:0C02D000AE17BF07C8F30895F894FFCFE5
:00000001FF
